{
  "contractName": "BlueCoin",
  "abi": [
    {
      "inputs": [
        {
          "internalType": "uint256",
          "name": "total",
          "type": "uint256"
        }
      ],
      "stateMutability": "nonpayable",
      "type": "constructor"
    },
    {
      "anonymous": false,
      "inputs": [
        {
          "indexed": true,
          "internalType": "address",
          "name": "tokenOwner",
          "type": "address"
        },
        {
          "indexed": true,
          "internalType": "address",
          "name": "spender",
          "type": "address"
        },
        {
          "indexed": false,
          "internalType": "uint256",
          "name": "tokens",
          "type": "uint256"
        }
      ],
      "name": "Approval",
      "type": "event"
    },
    {
      "anonymous": false,
      "inputs": [
        {
          "indexed": true,
          "internalType": "address",
          "name": "from",
          "type": "address"
        },
        {
          "indexed": true,
          "internalType": "address",
          "name": "to",
          "type": "address"
        },
        {
          "indexed": false,
          "internalType": "uint256",
          "name": "tokens",
          "type": "uint256"
        }
      ],
      "name": "Transfer",
      "type": "event"
    },
    {
      "inputs": [],
      "name": "decimals",
      "outputs": [
        {
          "internalType": "uint8",
          "name": "",
          "type": "uint8"
        }
      ],
      "stateMutability": "view",
      "type": "function",
      "constant": true
    },
    {
      "inputs": [],
      "name": "name",
      "outputs": [
        {
          "internalType": "string",
          "name": "",
          "type": "string"
        }
      ],
      "stateMutability": "view",
      "type": "function",
      "constant": true
    },
    {
      "inputs": [],
      "name": "symbol",
      "outputs": [
        {
          "internalType": "string",
          "name": "",
          "type": "string"
        }
      ],
      "stateMutability": "view",
      "type": "function",
      "constant": true
    },
    {
      "inputs": [],
      "name": "totalSupply",
      "outputs": [
        {
          "internalType": "uint256",
          "name": "",
          "type": "uint256"
        }
      ],
      "stateMutability": "view",
      "type": "function",
      "constant": true
    },
    {
      "inputs": [
        {
          "internalType": "address",
          "name": "tokenOwner",
          "type": "address"
        }
      ],
      "name": "balanceOf",
      "outputs": [
        {
          "internalType": "uint256",
          "name": "",
          "type": "uint256"
        }
      ],
      "stateMutability": "view",
      "type": "function",
      "constant": true
    },
    {
      "inputs": [
        {
          "internalType": "address",
          "name": "receiver",
          "type": "address"
        },
        {
          "internalType": "uint256",
          "name": "numTokens",
          "type": "uint256"
        }
      ],
      "name": "transfer",
      "outputs": [
        {
          "internalType": "bool",
          "name": "",
          "type": "bool"
        }
      ],
      "stateMutability": "payable",
      "type": "function",
      "payable": true
    },
    {
      "inputs": [
        {
          "internalType": "address",
          "name": "delegate",
          "type": "address"
        },
        {
          "internalType": "uint256",
          "name": "numTokens",
          "type": "uint256"
        }
      ],
      "name": "approve",
      "outputs": [
        {
          "internalType": "bool",
          "name": "",
          "type": "bool"
        }
      ],
      "stateMutability": "nonpayable",
      "type": "function"
    },
    {
      "inputs": [
        {
          "internalType": "address",
          "name": "owner",
          "type": "address"
        },
        {
          "internalType": "address",
          "name": "delegate",
          "type": "address"
        }
      ],
      "name": "allowance",
      "outputs": [
        {
          "internalType": "uint256",
          "name": "",
          "type": "uint256"
        }
      ],
      "stateMutability": "view",
      "type": "function",
      "constant": true
    },
    {
      "inputs": [
        {
          "internalType": "address",
          "name": "owner",
          "type": "address"
        },
        {
          "internalType": "address",
          "name": "buyer",
          "type": "address"
        },
        {
          "internalType": "uint256",
          "name": "numTokens",
          "type": "uint256"
        }
      ],
      "name": "transferFrom",
      "outputs": [
        {
          "internalType": "bool",
          "name": "",
          "type": "bool"
        }
      ],
      "stateMutability": "nonpayable",
      "type": "function"
    },
    {
      "inputs": [],
      "name": "close",
      "outputs": [],
      "stateMutability": "nonpayable",
      "type": "function"
    }
  ],
  "bytecode": "0x608060405234801561001057600080fd5b5060405161103038038061103083398181016040528101906100329190610100565b80600381905550600354600160003373ffffffffffffffffffffffffffffffffffffffff1673ffffffffffffffffffffffffffffffffffffffff16815260200190815260200160002081905550336000806101000a81548173ffffffffffffffffffffffffffffffffffffffff021916908373ffffffffffffffffffffffffffffffffffffffff1602179055505061012d565b600080fd5b6000819050919050565b6100dd816100ca565b81146100e857600080fd5b50565b6000815190506100fa816100d4565b92915050565b600060208284031215610116576101156100c5565b5b6000610124848285016100eb565b91505092915050565b610ef48061013c6000396000f3fe6080604052600436106100915760003560e01c806343d726d61161005957806343d726d61461019157806370a08231146101a857806395d89b41146101e5578063a9059cbb14610210578063dd62ed3e1461024057610091565b806306fdde0314610096578063095ea7b3146100c157806318160ddd146100fe57806323b872dd14610129578063313ce56714610166575b600080fd5b3480156100a257600080fd5b506100ab61027d565b6040516100b89190610b84565b60405180910390f35b3480156100cd57600080fd5b506100e860048036038101906100e39190610c3f565b6102b6565b6040516100f59190610c9a565b60405180910390f35b34801561010a57600080fd5b506101136103a8565b6040516101209190610cc4565b60405180910390f35b34801561013557600080fd5b50610150600480360381019061014b9190610cdf565b6103b2565b60405161015d9190610c9a565b60405180910390f35b34801561017257600080fd5b5061017b610732565b6040516101889190610d4e565b60405180910390f35b34801561019d57600080fd5b506101a6610737565b005b3480156101b457600080fd5b506101cf60048036038101906101ca9190610d69565b6107a8565b6040516101dc9190610cc4565b60405180910390f35b3480156101f157600080fd5b506101fa6107f1565b6040516102079190610b84565b60405180910390f35b61022a60048036038101906102259190610c3f565b61082a565b6040516102379190610c9a565b60405180910390f35b34801561024c57600080fd5b5061026760048036038101906102629190610d96565b610a11565b6040516102749190610cc4565b60405180910390f35b6040518060400160405280600981526020017f426c756520436f696e000000000000000000000000000000000000000000000081525081565b600081600260003373ffffffffffffffffffffffffffffffffffffffff1673ffffffffffffffffffffffffffffffffffffffff16815260200190815260200160002060008573ffffffffffffffffffffffffffffffffffffffff1673ffffffffffffffffffffffffffffffffffffffff168152602001908152602001600020819055508273ffffffffffffffffffffffffffffffffffffffff163373ffffffffffffffffffffffffffffffffffffffff167f8c5be1e5ebec7d5bd14f71427d1e84f3dd0314c0f7b2291e5b200ac8c7c3b925846040516103969190610cc4565b60405180910390a36001905092915050565b6000600354905090565b6000600160008573ffffffffffffffffffffffffffffffffffffffff1673ffffffffffffffffffffffffffffffffffffffff1681526020019081526020016000205482111561040057600080fd5b600260008573ffffffffffffffffffffffffffffffffffffffff1673ffffffffffffffffffffffffffffffffffffffff16815260200190815260200160002060003373ffffffffffffffffffffffffffffffffffffffff1673ffffffffffffffffffffffffffffffffffffffff1681526020019081526020016000205482111561048957600080fd5b6104db82600160008773ffffffffffffffffffffffffffffffffffffffff1673ffffffffffffffffffffffffffffffffffffffff16815260200190815260200160002054610a9890919063ffffffff16565b600160008673ffffffffffffffffffffffffffffffffffffffff1673ffffffffffffffffffffffffffffffffffffffff168152602001908152602001600020819055506105ad82600260008773ffffffffffffffffffffffffffffffffffffffff1673ffffffffffffffffffffffffffffffffffffffff16815260200190815260200160002060003373ffffffffffffffffffffffffffffffffffffffff1673ffffffffffffffffffffffffffffffffffffffff16815260200190815260200160002054610a9890919063ffffffff16565b600260008673ffffffffffffffffffffffffffffffffffffffff1673ffffffffffffffffffffffffffffffffffffffff16815260200190815260200160002060003373ffffffffffffffffffffffffffffffffffffffff1673ffffffffffffffffffffffffffffffffffffffff1681526020019081526020016000208190555061067f82600160008673ffffffffffffffffffffffffffffffffffffffff1673ffffffffffffffffffffffffffffffffffffffff16815260200190815260200160002054610abf90919063ffffffff16565b600160008573ffffffffffffffffffffffffffffffffffffffff1673ffffffffffffffffffffffffffffffffffffffff168152602001908152602001600020819055508273ffffffffffffffffffffffffffffffffffffffff168473ffffffffffffffffffffffffffffffffffffffff167fddf252ad1be2c89b69c2b068fc378daa952ba7f163c4a11628f55a4df523b3ef8460405161071f9190610cc4565b60405180910390a3600190509392505050565b600281565b60008054906101000a900473ffffffffffffffffffffffffffffffffffffffff1673ffffffffffffffffffffffffffffffffffffffff163373ffffffffffffffffffffffffffffffffffffffff161461078f57600080fd5b3373ffffffffffffffffffffffffffffffffffffffff16ff5b6000600160008373ffffffffffffffffffffffffffffffffffffffff1673ffffffffffffffffffffffffffffffffffffffff168152602001908152602001600020549050919050565b6040518060400160405280600381526020017f424c55000000000000000000000000000000000000000000000000000000000081525081565b6000600160003373ffffffffffffffffffffffffffffffffffffffff1673ffffffffffffffffffffffffffffffffffffffff1681526020019081526020016000205482111561087857600080fd5b6108ca82600160003373ffffffffffffffffffffffffffffffffffffffff1673ffffffffffffffffffffffffffffffffffffffff16815260200190815260200160002054610a9890919063ffffffff16565b600160003373ffffffffffffffffffffffffffffffffffffffff1673ffffffffffffffffffffffffffffffffffffffff1681526020019081526020016000208190555061095f82600160008673ffffffffffffffffffffffffffffffffffffffff1673ffffffffffffffffffffffffffffffffffffffff16815260200190815260200160002054610abf90919063ffffffff16565b600160008573ffffffffffffffffffffffffffffffffffffffff1673ffffffffffffffffffffffffffffffffffffffff168152602001908152602001600020819055508273ffffffffffffffffffffffffffffffffffffffff163373ffffffffffffffffffffffffffffffffffffffff167fddf252ad1be2c89b69c2b068fc378daa952ba7f163c4a11628f55a4df523b3ef846040516109ff9190610cc4565b60405180910390a36001905092915050565b6000600260008473ffffffffffffffffffffffffffffffffffffffff1673ffffffffffffffffffffffffffffffffffffffff16815260200190815260200160002060008373ffffffffffffffffffffffffffffffffffffffff1673ffffffffffffffffffffffffffffffffffffffff16815260200190815260200160002054905092915050565b600082821115610aab57610aaa610dd6565b5b8183610ab79190610e34565b905092915050565b6000808284610ace9190610e68565b905083811015610ae157610ae0610dd6565b5b8091505092915050565b600081519050919050565b600082825260208201905092915050565b60005b83811015610b25578082015181840152602081019050610b0a565b83811115610b34576000848401525b50505050565b6000601f19601f8301169050919050565b6000610b5682610aeb565b610b608185610af6565b9350610b70818560208601610b07565b610b7981610b3a565b840191505092915050565b60006020820190508181036000830152610b9e8184610b4b565b905092915050565b600080fd5b600073ffffffffffffffffffffffffffffffffffffffff82169050919050565b6000610bd682610bab565b9050919050565b610be681610bcb565b8114610bf157600080fd5b50565b600081359050610c0381610bdd565b92915050565b6000819050919050565b610c1c81610c09565b8114610c2757600080fd5b50565b600081359050610c3981610c13565b92915050565b60008060408385031215610c5657610c55610ba6565b5b6000610c6485828601610bf4565b9250506020610c7585828601610c2a565b9150509250929050565b60008115159050919050565b610c9481610c7f565b82525050565b6000602082019050610caf6000830184610c8b565b92915050565b610cbe81610c09565b82525050565b6000602082019050610cd96000830184610cb5565b92915050565b600080600060608486031215610cf857610cf7610ba6565b5b6000610d0686828701610bf4565b9350506020610d1786828701610bf4565b9250506040610d2886828701610c2a565b9150509250925092565b600060ff82169050919050565b610d4881610d32565b82525050565b6000602082019050610d636000830184610d3f565b92915050565b600060208284031215610d7f57610d7e610ba6565b5b6000610d8d84828501610bf4565b91505092915050565b60008060408385031215610dad57610dac610ba6565b5b6000610dbb85828601610bf4565b9250506020610dcc85828601610bf4565b9150509250929050565b7f4e487b7100000000000000000000000000000000000000000000000000000000600052600160045260246000fd5b7f4e487b7100000000000000000000000000000000000000000000000000000000600052601160045260246000fd5b6000610e3f82610c09565b9150610e4a83610c09565b925082821015610e5d57610e5c610e05565b5b828203905092915050565b6000610e7382610c09565b9150610e7e83610c09565b9250827fffffffffffffffffffffffffffffffffffffffffffffffffffffffffffffffff03821115610eb357610eb2610e05565b5b82820190509291505056fea264697066735822122061dd9e974fc8cbd167f1847c2ce3d0ab6185c04e797491e035a75a1fce2fd77e64736f6c634300080c0033",
  "immutableReferences": {},
  "source": "//SPDX-License-Identifier: UNLICENSED\npragma solidity ^0.8.10;\n\ncontract BlueCoin {\n    string public constant name = \"Blue Coin\";\n    string public constant symbol = \"BLU\";\n    uint8 public constant decimals = 2;\n\n    address ERCowner; //#1\n\n    event Approval(\n        address indexed tokenOwner,\n        address indexed spender,\n        uint256 tokens\n    );\n    event Transfer(address indexed from, address indexed to, uint256 tokens);\n\n    mapping(address => uint256) balances;\n\n    mapping(address => mapping(address => uint256)) allowed;\n\n    uint256 totalSupply_;\n\n    using SafeMath for uint256;\n\n    constructor(uint256 total) public {\n        totalSupply_ = total;\n        balances[msg.sender] = totalSupply_;\n        ERCowner = msg.sender; //#2\n    }\n\n    function totalSupply() public view returns (uint256) {\n        return totalSupply_;\n    }\n\n    function balanceOf(address tokenOwner) public view returns (uint256) {\n        return balances[tokenOwner];\n    }\n\n    function transfer(address receiver, uint256 numTokens)\n        public\n        payable\n        returns (bool)\n    {\n        require(numTokens <= balances[msg.sender]);\n        balances[msg.sender] = balances[msg.sender].sub(numTokens);\n        balances[receiver] = balances[receiver].add(numTokens);\n        emit Transfer(msg.sender, receiver, numTokens);\n        return true;\n    }\n\n    function approve(address delegate, uint256 numTokens)\n        public\n        returns (bool)\n    {\n        allowed[msg.sender][delegate] = numTokens;\n        emit Approval(msg.sender, delegate, numTokens);\n        return true;\n    }\n\n    function allowance(address owner, address delegate)\n        public\n        view\n        returns (uint256)\n    {\n        return allowed[owner][delegate];\n    }\n\n    function transferFrom(\n        address owner,\n        address buyer,\n        uint256 numTokens\n    ) public returns (bool) {\n        require(numTokens <= balances[owner]);\n        require(numTokens <= allowed[owner][msg.sender]);\n\n        balances[owner] = balances[owner].sub(numTokens);\n        allowed[owner][msg.sender] = allowed[owner][msg.sender].sub(numTokens);\n        balances[buyer] = balances[buyer].add(numTokens);\n        emit Transfer(owner, buyer, numTokens);\n        return true;\n    }\n\n    //#3\n    function close() public {\n        require(msg.sender == ERCowner);\n        selfdestruct(payable(msg.sender));\n    }\n}\n\nlibrary SafeMath {\n    function sub(uint256 a, uint256 b) internal pure returns (uint256) {\n        assert(b <= a);\n        return a - b;\n    }\n\n    function add(uint256 a, uint256 b) internal pure returns (uint256) {\n        uint256 c = a + b;\n        assert(c >= a);\n        return c;\n    }\n}\n",
  "sourcePath": "/Users/cedricbone/Desktop/UB/Spring 2022/Blockchain App/LuckyBlue-Dapp/contract/contracts/BlueCoin.sol",
  "compiler": {
    "name": "solc",
    "version": "0.8.12+commit.f00d7308.Emscripten.clang"
  },
  "schemaVersion": "3.4.6",
  "updatedAt": "2022-04-23T20:37:28.312Z",
  "networkType": "ethereum",
  "devdoc": {
    "kind": "dev",
    "methods": {},
    "version": 1
  },
  "userdoc": {
    "kind": "user",
    "methods": {},
    "version": 1
  }
}