{
  "contractName": "LuckyBlue",
  "abi": [
    {
      "inputs": [],
      "stateMutability": "payable",
      "type": "constructor",
      "payable": true
    },
    {
      "stateMutability": "payable",
      "type": "fallback",
      "payable": true
    },
    {
      "inputs": [],
      "name": "ContractValue",
      "outputs": [
        {
          "internalType": "uint256",
          "name": "",
          "type": "uint256"
        }
      ],
      "stateMutability": "view",
      "type": "function",
      "constant": true
    },
    {
      "inputs": [],
      "name": "cedric",
      "outputs": [
        {
          "internalType": "address",
          "name": "",
          "type": "address"
        }
      ],
      "stateMutability": "view",
      "type": "function",
      "constant": true
    },
    {
      "inputs": [],
      "name": "jack",
      "outputs": [
        {
          "internalType": "address",
          "name": "",
          "type": "address"
        }
      ],
      "stateMutability": "view",
      "type": "function",
      "constant": true
    },
    {
      "inputs": [
        {
          "internalType": "uint256",
          "name": "",
          "type": "uint256"
        }
      ],
      "name": "players",
      "outputs": [
        {
          "internalType": "address",
          "name": "",
          "type": "address"
        }
      ],
      "stateMutability": "view",
      "type": "function",
      "constant": true
    },
    {
      "inputs": [],
      "name": "token",
      "outputs": [
        {
          "internalType": "contract IERC20",
          "name": "",
          "type": "address"
        }
      ],
      "stateMutability": "view",
      "type": "function",
      "constant": true
    },
    {
      "inputs": [
        {
          "internalType": "uint256",
          "name": "",
          "type": "uint256"
        }
      ],
      "name": "vendors",
      "outputs": [
        {
          "internalType": "address payable",
          "name": "vendorAddress",
          "type": "address"
        },
        {
          "internalType": "uint256",
          "name": "numVendorGames",
          "type": "uint256"
        }
      ],
      "stateMutability": "view",
      "type": "function",
      "constant": true
    },
    {
      "stateMutability": "payable",
      "type": "receive",
      "payable": true
    },
    {
      "inputs": [],
      "name": "getBalance",
      "outputs": [
        {
          "internalType": "uint256",
          "name": "",
          "type": "uint256"
        }
      ],
      "stateMutability": "view",
      "type": "function",
      "constant": true
    },
    {
      "inputs": [],
      "name": "extractValue",
      "outputs": [],
      "stateMutability": "payable",
      "type": "function",
      "payable": true
    },
    {
      "inputs": [],
      "name": "RegisterPlayer",
      "outputs": [],
      "stateMutability": "payable",
      "type": "function",
      "payable": true
    },
    {
      "inputs": [],
      "name": "DeregisterPlayer",
      "outputs": [],
      "stateMutability": "nonpayable",
      "type": "function"
    },
    {
      "inputs": [],
      "name": "RegisterVendor",
      "outputs": [],
      "stateMutability": "payable",
      "type": "function",
      "payable": true
    },
    {
      "inputs": [],
      "name": "DeregisterVendor",
      "outputs": [],
      "stateMutability": "nonpayable",
      "type": "function"
    },
    {
      "inputs": [
        {
          "internalType": "address payable",
          "name": "player",
          "type": "address"
        }
      ],
      "name": "CheckPlayer",
      "outputs": [
        {
          "internalType": "bool",
          "name": "",
          "type": "bool"
        }
      ],
      "stateMutability": "view",
      "type": "function",
      "constant": true
    },
    {
      "inputs": [
        {
          "internalType": "address payable",
          "name": "vendor",
          "type": "address"
        }
      ],
      "name": "CheckVendor",
      "outputs": [
        {
          "internalType": "bool",
          "name": "",
          "type": "bool"
        }
      ],
      "stateMutability": "view",
      "type": "function",
      "constant": true
    },
    {
      "inputs": [
        {
          "internalType": "uint256",
          "name": "vendorCut",
          "type": "uint256"
        }
      ],
      "name": "PayVendors",
      "outputs": [],
      "stateMutability": "payable",
      "type": "function",
      "payable": true
    },
    {
      "inputs": [],
      "name": "AddGame",
      "outputs": [],
      "stateMutability": "payable",
      "type": "function",
      "payable": true
    }
  ],
  "bytecode": "0x608060405260006006556002600755600260085560016009557337813e4e4c751f902763ff5a00337bb715a79a79600260006101000a81548173ffffffffffffffffffffffffffffffffffffffff021916908373ffffffffffffffffffffffffffffffffffffffff16021790555073f667eb467304d505b9fd484aa622b9213c1b8920600360006101000a81548173ffffffffffffffffffffffffffffffffffffffff021916908373ffffffffffffffffffffffffffffffffffffffff16021790555034600181905550620186a0604051620000db906200014a565b620000e79190620001af565b604051809103906000f08015801562000104573d6000803e3d6000fd5b506000806101000a81548173ffffffffffffffffffffffffffffffffffffffff021916908373ffffffffffffffffffffffffffffffffffffffff160217905550620001cc565b6110308062001d0a83390190565b6000819050919050565b6000819050919050565b6000819050919050565b600062000197620001916200018b8462000158565b6200016c565b62000162565b9050919050565b620001a98162000176565b82525050565b6000602082019050620001c660008301846200019e565b92915050565b611b2e80620001dc6000396000f3fe6080604052600436106100f75760003560e01c806393a4ce611161008a578063f6246c0f11610059578063f6246c0f146102a8578063f71d96cb146102bf578063f840a8a6146102fc578063fc0c546a14610313576100fe565b806393a4ce6114610207578063a08d986d14610211578063a821c6d41461024f578063cabc05d01461028c576100fe565b8063595cd96f116100c6578063595cd96f1461016a57806378c8769b14610174578063873babff1461019f5780638e10c8c5146101ca576100fe565b8063054171431461010057806312065fe01461012b578063131c4521146101565780633c5b005314610160576100fe565b366100fe57005b005b34801561010c57600080fd5b5061011561033e565b6040516101229190611278565b60405180910390f35b34801561013757600080fd5b50610140610364565b60405161014d91906112ac565b60405180910390f35b61015e61037f565b005b61016861061e565b005b6101726107d4565b005b34801561018057600080fd5b50610189610926565b6040516101969190611278565b60405180910390f35b3480156101ab57600080fd5b506101b461094c565b6040516101c191906112ac565b60405180910390f35b3480156101d657600080fd5b506101f160048036038101906101ec919061130a565b610952565b6040516101fe9190611352565b60405180910390f35b61020f610a01565b005b34801561021d57600080fd5b5061023860048036038101906102339190611399565b610bf6565b6040516102469291906113d5565b60405180910390f35b34801561025b57600080fd5b506102766004803603810190610271919061130a565b610c4a565b6040516102839190611352565b60405180910390f35b6102a660048036038101906102a19190611399565b610d00565b005b3480156102b457600080fd5b506102bd610ddb565b005b3480156102cb57600080fd5b506102e660048036038101906102e19190611399565b610ff3565b6040516102f39190611278565b60405180910390f35b34801561030857600080fd5b50610311611032565b005b34801561031f57600080fd5b50610328611213565b604051610335919061145d565b60405180910390f35b600360009054906101000a900473ffffffffffffffffffffffffffffffffffffffff1681565b6000670de0b6b3a76400004761037a91906114d6565b905090565b6001543411156103c4576040517f08c379a00000000000000000000000000000000000000000000000000000000081526004016103bb9061158a565b60405180910390fd5b600360009054906101000a900473ffffffffffffffffffffffffffffffffffffffff1673ffffffffffffffffffffffffffffffffffffffff163373ffffffffffffffffffffffffffffffffffffffff16148061046d5750600260009054906101000a900473ffffffffffffffffffffffffffffffffffffffff1673ffffffffffffffffffffffffffffffffffffffff163373ffffffffffffffffffffffffffffffffffffffff16145b6104ac576040517f08c379a00000000000000000000000000000000000000000000000000000000081526004016104a3906115f6565b60405180910390fd5b60006002346104bb91906114d6565b9050600360009054906101000a900473ffffffffffffffffffffffffffffffffffffffff1673ffffffffffffffffffffffffffffffffffffffff166108fc829081150290604051600060405180830381858888f19350505050158015610525573d6000803e3d6000fd5b50600260009054906101000a900473ffffffffffffffffffffffffffffffffffffffff1673ffffffffffffffffffffffffffffffffffffffff166108fc829081150290604051600060405180830381858888f1935050505015801561058e573d6000803e3d6000fd5b5060003373ffffffffffffffffffffffffffffffffffffffff166108fc349081150290604051600060405180830381858888f19350505050905080610608576040517f08c379a00000000000000000000000000000000000000000000000000000000081526004016105ff90611662565b60405180910390fd5b34476106149190611682565b6001819055505050565b600954341015610663576040517f08c379a000000000000000000000000000000000000000000000000000000000815260040161065a90611702565b60405180910390fd5b6001151561067033610c4a565b1515146106b2576040517f08c379a00000000000000000000000000000000000000000000000000000000081526004016106a99061176e565b60405180910390fd5b60016006546106c1919061178e565b60068190555060005b6005805490508110156107bf573373ffffffffffffffffffffffffffffffffffffffff1660058281548110610702576107016117e4565b5b906000526020600020906002020160000160009054906101000a900473ffffffffffffffffffffffffffffffffffffffff1673ffffffffffffffffffffffffffffffffffffffff1614156107ac57600160058281548110610766576107656117e4565b5b906000526020600020906002020160010154610782919061178e565b60058281548110610796576107956117e4565b5b9060005260206000209060020201600101819055505b80806107b790611813565b9150506106ca565b5034476107cc919061178e565b600181905550565b600754341015610819576040517f08c379a000000000000000000000000000000000000000000000000000000000815260040161081090611702565b60405180910390fd5b6000151561082633610c4a565b151514610868576040517f08c379a000000000000000000000000000000000000000000000000000000000815260040161085f906118a8565b60405180910390fd5b600560405180604001604052803373ffffffffffffffffffffffffffffffffffffffff1681526020016000815250908060018154018082558091505060019003906000526020600020906002020160009091909190915060008201518160000160006101000a81548173ffffffffffffffffffffffffffffffffffffffff021916908373ffffffffffffffffffffffffffffffffffffffff160217905550602082015181600101555050344761091e919061178e565b600181905550565b600260009054906101000a900473ffffffffffffffffffffffffffffffffffffffff1681565b60015481565b600080600090505b6004805490508110156109f6578273ffffffffffffffffffffffffffffffffffffffff1660048281548110610992576109916117e4565b5b9060005260206000200160009054906101000a900473ffffffffffffffffffffffffffffffffffffffff1673ffffffffffffffffffffffffffffffffffffffff1614156109e35760019150506109fc565b80806109ee90611813565b91505061095a565b50600090505b919050565b600854341015610a46576040517f08c379a0000000000000000000000000000000000000000000000000000000008152600401610a3d90611702565b60405180910390fd5b60001515610a5333610952565b151514610a95576040517f08c379a0000000000000000000000000000000000000000000000000000000008152600401610a8c90611914565b60405180910390fd5b6004339080600181540180825580915050600190039060005260206000200160009091909190916101000a81548173ffffffffffffffffffffffffffffffffffffffff021916908373ffffffffffffffffffffffffffffffffffffffff1602179055506000600234610b0791906114d6565b9050600234610b1691906114d6565b47610b21919061178e565b600181905550610b3081610d00565b60008054906101000a900473ffffffffffffffffffffffffffffffffffffffff1673ffffffffffffffffffffffffffffffffffffffff1663095ea7b3600360009054906101000a900473ffffffffffffffffffffffffffffffffffffffff166103e86040518363ffffffff1660e01b8152600401610baf92919061196f565b6020604051808303816000875af1158015610bce573d6000803e3d6000fd5b505050506040513d601f19601f82011682018060405250810190610bf291906119c4565b5050565b60058181548110610c0657600080fd5b90600052602060002090600202016000915090508060000160009054906101000a900473ffffffffffffffffffffffffffffffffffffffff16908060010154905082565b600080600090505b600580549050811015610cf5578273ffffffffffffffffffffffffffffffffffffffff1660058281548110610c8a57610c896117e4565b5b906000526020600020906002020160000160009054906101000a900473ffffffffffffffffffffffffffffffffffffffff1673ffffffffffffffffffffffffffffffffffffffff161415610ce2576001915050610cfb565b8080610ced90611813565b915050610c52565b50600090505b919050565b600060058054905082610d1391906114d6565b905060005b600580549050811015610dc45760058181548110610d3957610d386117e4565b5b906000526020600020906002020160000160009054906101000a900473ffffffffffffffffffffffffffffffffffffffff1673ffffffffffffffffffffffffffffffffffffffff166108fc839081150290604051600060405180830381858888f19350505050158015610db0573d6000803e3d6000fd5b508080610dbc90611813565b915050610d18565b508147610dd19190611682565b6001819055505050565b60011515610de833610c4a565b151514610e2a576040517f08c379a0000000000000000000000000000000000000000000000000000000008152600401610e2190611a3d565b60405180910390fd5b60005b600580549050811015610fef573373ffffffffffffffffffffffffffffffffffffffff1660058281548110610e6557610e646117e4565b5b906000526020600020906002020160000160009054906101000a900473ffffffffffffffffffffffffffffffffffffffff1673ffffffffffffffffffffffffffffffffffffffff161415610fdc5760056001600580549050610ec79190611682565b81548110610ed857610ed76117e4565b5b906000526020600020906002020160058281548110610efa57610ef96117e4565b5b90600052602060002090600202016000820160009054906101000a900473ffffffffffffffffffffffffffffffffffffffff168160000160006101000a81548173ffffffffffffffffffffffffffffffffffffffff021916908373ffffffffffffffffffffffffffffffffffffffff160217905550600182015481600101559050506005805480610f8e57610f8d611a5d565b5b6001900381819060005260206000209060020201600080820160006101000a81549073ffffffffffffffffffffffffffffffffffffffff021916905560018201600090555050905550610ff1565b8080610fe790611813565b915050610e2d565b505b565b6004818154811061100357600080fd5b906000526020600020016000915054906101000a900473ffffffffffffffffffffffffffffffffffffffff1681565b6001151561103f33610952565b151514611081576040517f08c379a000000000000000000000000000000000000000000000000000000000815260040161107890611ad8565b60405180910390fd5b60005b60048054905081101561120f573373ffffffffffffffffffffffffffffffffffffffff16600482815481106110bc576110bb6117e4565b5b9060005260206000200160009054906101000a900473ffffffffffffffffffffffffffffffffffffffff1673ffffffffffffffffffffffffffffffffffffffff1614156111fc57600460016004805490506111179190611682565b81548110611128576111276117e4565b5b9060005260206000200160009054906101000a900473ffffffffffffffffffffffffffffffffffffffff1660048281548110611167576111666117e4565b5b9060005260206000200160006101000a81548173ffffffffffffffffffffffffffffffffffffffff021916908373ffffffffffffffffffffffffffffffffffffffff16021790555060048054806111c1576111c0611a5d565b5b6001900381819060005260206000200160006101000a81549073ffffffffffffffffffffffffffffffffffffffff0219169055905550611211565b808061120790611813565b915050611084565b505b565b60008054906101000a900473ffffffffffffffffffffffffffffffffffffffff1681565b600073ffffffffffffffffffffffffffffffffffffffff82169050919050565b600061126282611237565b9050919050565b61127281611257565b82525050565b600060208201905061128d6000830184611269565b92915050565b6000819050919050565b6112a681611293565b82525050565b60006020820190506112c1600083018461129d565b92915050565b600080fd5b60006112d782611237565b9050919050565b6112e7816112cc565b81146112f257600080fd5b50565b600081359050611304816112de565b92915050565b6000602082840312156113205761131f6112c7565b5b600061132e848285016112f5565b91505092915050565b60008115159050919050565b61134c81611337565b82525050565b60006020820190506113676000830184611343565b92915050565b61137681611293565b811461138157600080fd5b50565b6000813590506113938161136d565b92915050565b6000602082840312156113af576113ae6112c7565b5b60006113bd84828501611384565b91505092915050565b6113cf816112cc565b82525050565b60006040820190506113ea60008301856113c6565b6113f7602083018461129d565b9392505050565b6000819050919050565b600061142361141e61141984611237565b6113fe565b611237565b9050919050565b600061143582611408565b9050919050565b60006114478261142a565b9050919050565b6114578161143c565b82525050565b6000602082019050611472600083018461144e565b92915050565b7f4e487b7100000000000000000000000000000000000000000000000000000000600052601260045260246000fd5b7f4e487b7100000000000000000000000000000000000000000000000000000000600052601160045260246000fd5b60006114e182611293565b91506114ec83611293565b9250826114fc576114fb611478565b5b828204905092915050565b600082825260208201905092915050565b7f5265717565737465642076616c7565206973206d6f7265207468616e20636f6e60008201527f747261637427732062616c616e63650000000000000000000000000000000000602082015250565b6000611574602f83611507565b915061157f82611518565b604082019050919050565b600060208201905081810360008301526115a381611567565b9050919050565b7f596f7520617265206e6f7420616e206f776e6572000000000000000000000000600082015250565b60006115e0601483611507565b91506115eb826115aa565b602082019050919050565b6000602082019050818103600083015261160f816115d3565b9050919050565b7f4661696c656420746f2073656e64204574686572000000000000000000000000600082015250565b600061164c601483611507565b915061165782611616565b602082019050919050565b6000602082019050818103600083015261167b8161163f565b9050919050565b600061168d82611293565b915061169883611293565b9250828210156116ab576116aa6114a7565b5b828203905092915050565b7f4e6f7420656e6f75676820426c756520436f696e210000000000000000000000600082015250565b60006116ec601583611507565b91506116f7826116b6565b602082019050919050565b6000602082019050818103600083015261171b816116df565b9050919050565b7f4e6f74206120726567697374657265642076656e646f72000000000000000000600082015250565b6000611758601783611507565b915061176382611722565b602082019050919050565b600060208201905081810360008301526117878161174b565b9050919050565b600061179982611293565b91506117a483611293565b9250827fffffffffffffffffffffffffffffffffffffffffffffffffffffffffffffffff038211156117d9576117d86114a7565b5b828201905092915050565b7f4e487b7100000000000000000000000000000000000000000000000000000000600052603260045260246000fd5b600061181e82611293565b91507fffffffffffffffffffffffffffffffffffffffffffffffffffffffffffffffff821415611851576118506114a7565b5b600182019050919050565b7f596f752061726520616c726561647920612076656e646f720000000000000000600082015250565b6000611892601883611507565b915061189d8261185c565b602082019050919050565b600060208201905081810360008301526118c181611885565b9050919050565b7f596f752061726520616c7265616479206120706c617965720000000000000000600082015250565b60006118fe601883611507565b9150611909826118c8565b602082019050919050565b6000602082019050818103600083015261192d816118f1565b9050919050565b6000819050919050565b600061195961195461194f84611934565b6113fe565b611293565b9050919050565b6119698161193e565b82525050565b60006040820190506119846000830185611269565b6119916020830184611960565b9392505050565b6119a181611337565b81146119ac57600080fd5b50565b6000815190506119be81611998565b92915050565b6000602082840312156119da576119d96112c7565b5b60006119e8848285016119af565b91505092915050565b7f596f7520617265206e6f7420612076656e646f72000000000000000000000000600082015250565b6000611a27601483611507565b9150611a32826119f1565b602082019050919050565b60006020820190508181036000830152611a5681611a1a565b9050919050565b7f4e487b7100000000000000000000000000000000000000000000000000000000600052603160045260246000fd5b7f596f7520617265206e6f74206120706c61796572000000000000000000000000600082015250565b6000611ac2601483611507565b9150611acd82611a8c565b602082019050919050565b60006020820190508181036000830152611af181611ab5565b905091905056fea26469706673582212201345e8cfc76e7d3b2db967c9a9371255f3280d7e89ad4bd707198f49d73e0ecc64736f6c634300080c0033608060405234801561001057600080fd5b5060405161103038038061103083398181016040528101906100329190610100565b80600381905550600354600160003373ffffffffffffffffffffffffffffffffffffffff1673ffffffffffffffffffffffffffffffffffffffff16815260200190815260200160002081905550336000806101000a81548173ffffffffffffffffffffffffffffffffffffffff021916908373ffffffffffffffffffffffffffffffffffffffff1602179055505061012d565b600080fd5b6000819050919050565b6100dd816100ca565b81146100e857600080fd5b50565b6000815190506100fa816100d4565b92915050565b600060208284031215610116576101156100c5565b5b6000610124848285016100eb565b91505092915050565b610ef48061013c6000396000f3fe6080604052600436106100915760003560e01c806343d726d61161005957806343d726d61461019157806370a08231146101a857806395d89b41146101e5578063a9059cbb14610210578063dd62ed3e1461024057610091565b806306fdde0314610096578063095ea7b3146100c157806318160ddd146100fe57806323b872dd14610129578063313ce56714610166575b600080fd5b3480156100a257600080fd5b506100ab61027d565b6040516100b89190610b84565b60405180910390f35b3480156100cd57600080fd5b506100e860048036038101906100e39190610c3f565b6102b6565b6040516100f59190610c9a565b60405180910390f35b34801561010a57600080fd5b506101136103a8565b6040516101209190610cc4565b60405180910390f35b34801561013557600080fd5b50610150600480360381019061014b9190610cdf565b6103b2565b60405161015d9190610c9a565b60405180910390f35b34801561017257600080fd5b5061017b610732565b6040516101889190610d4e565b60405180910390f35b34801561019d57600080fd5b506101a6610737565b005b3480156101b457600080fd5b506101cf60048036038101906101ca9190610d69565b6107a8565b6040516101dc9190610cc4565b60405180910390f35b3480156101f157600080fd5b506101fa6107f1565b6040516102079190610b84565b60405180910390f35b61022a60048036038101906102259190610c3f565b61082a565b6040516102379190610c9a565b60405180910390f35b34801561024c57600080fd5b5061026760048036038101906102629190610d96565b610a11565b6040516102749190610cc4565b60405180910390f35b6040518060400160405280600981526020017f426c756520436f696e000000000000000000000000000000000000000000000081525081565b600081600260003373ffffffffffffffffffffffffffffffffffffffff1673ffffffffffffffffffffffffffffffffffffffff16815260200190815260200160002060008573ffffffffffffffffffffffffffffffffffffffff1673ffffffffffffffffffffffffffffffffffffffff168152602001908152602001600020819055508273ffffffffffffffffffffffffffffffffffffffff163373ffffffffffffffffffffffffffffffffffffffff167f8c5be1e5ebec7d5bd14f71427d1e84f3dd0314c0f7b2291e5b200ac8c7c3b925846040516103969190610cc4565b60405180910390a36001905092915050565b6000600354905090565b6000600160008573ffffffffffffffffffffffffffffffffffffffff1673ffffffffffffffffffffffffffffffffffffffff1681526020019081526020016000205482111561040057600080fd5b600260008573ffffffffffffffffffffffffffffffffffffffff1673ffffffffffffffffffffffffffffffffffffffff16815260200190815260200160002060003373ffffffffffffffffffffffffffffffffffffffff1673ffffffffffffffffffffffffffffffffffffffff1681526020019081526020016000205482111561048957600080fd5b6104db82600160008773ffffffffffffffffffffffffffffffffffffffff1673ffffffffffffffffffffffffffffffffffffffff16815260200190815260200160002054610a9890919063ffffffff16565b600160008673ffffffffffffffffffffffffffffffffffffffff1673ffffffffffffffffffffffffffffffffffffffff168152602001908152602001600020819055506105ad82600260008773ffffffffffffffffffffffffffffffffffffffff1673ffffffffffffffffffffffffffffffffffffffff16815260200190815260200160002060003373ffffffffffffffffffffffffffffffffffffffff1673ffffffffffffffffffffffffffffffffffffffff16815260200190815260200160002054610a9890919063ffffffff16565b600260008673ffffffffffffffffffffffffffffffffffffffff1673ffffffffffffffffffffffffffffffffffffffff16815260200190815260200160002060003373ffffffffffffffffffffffffffffffffffffffff1673ffffffffffffffffffffffffffffffffffffffff1681526020019081526020016000208190555061067f82600160008673ffffffffffffffffffffffffffffffffffffffff1673ffffffffffffffffffffffffffffffffffffffff16815260200190815260200160002054610abf90919063ffffffff16565b600160008573ffffffffffffffffffffffffffffffffffffffff1673ffffffffffffffffffffffffffffffffffffffff168152602001908152602001600020819055508273ffffffffffffffffffffffffffffffffffffffff168473ffffffffffffffffffffffffffffffffffffffff167fddf252ad1be2c89b69c2b068fc378daa952ba7f163c4a11628f55a4df523b3ef8460405161071f9190610cc4565b60405180910390a3600190509392505050565b600281565b60008054906101000a900473ffffffffffffffffffffffffffffffffffffffff1673ffffffffffffffffffffffffffffffffffffffff163373ffffffffffffffffffffffffffffffffffffffff161461078f57600080fd5b3373ffffffffffffffffffffffffffffffffffffffff16ff5b6000600160008373ffffffffffffffffffffffffffffffffffffffff1673ffffffffffffffffffffffffffffffffffffffff168152602001908152602001600020549050919050565b6040518060400160405280600381526020017f424c55000000000000000000000000000000000000000000000000000000000081525081565b6000600160003373ffffffffffffffffffffffffffffffffffffffff1673ffffffffffffffffffffffffffffffffffffffff1681526020019081526020016000205482111561087857600080fd5b6108ca82600160003373ffffffffffffffffffffffffffffffffffffffff1673ffffffffffffffffffffffffffffffffffffffff16815260200190815260200160002054610a9890919063ffffffff16565b600160003373ffffffffffffffffffffffffffffffffffffffff1673ffffffffffffffffffffffffffffffffffffffff1681526020019081526020016000208190555061095f82600160008673ffffffffffffffffffffffffffffffffffffffff1673ffffffffffffffffffffffffffffffffffffffff16815260200190815260200160002054610abf90919063ffffffff16565b600160008573ffffffffffffffffffffffffffffffffffffffff1673ffffffffffffffffffffffffffffffffffffffff168152602001908152602001600020819055508273ffffffffffffffffffffffffffffffffffffffff163373ffffffffffffffffffffffffffffffffffffffff167fddf252ad1be2c89b69c2b068fc378daa952ba7f163c4a11628f55a4df523b3ef846040516109ff9190610cc4565b60405180910390a36001905092915050565b6000600260008473ffffffffffffffffffffffffffffffffffffffff1673ffffffffffffffffffffffffffffffffffffffff16815260200190815260200160002060008373ffffffffffffffffffffffffffffffffffffffff1673ffffffffffffffffffffffffffffffffffffffff16815260200190815260200160002054905092915050565b600082821115610aab57610aaa610dd6565b5b8183610ab79190610e34565b905092915050565b6000808284610ace9190610e68565b905083811015610ae157610ae0610dd6565b5b8091505092915050565b600081519050919050565b600082825260208201905092915050565b60005b83811015610b25578082015181840152602081019050610b0a565b83811115610b34576000848401525b50505050565b6000601f19601f8301169050919050565b6000610b5682610aeb565b610b608185610af6565b9350610b70818560208601610b07565b610b7981610b3a565b840191505092915050565b60006020820190508181036000830152610b9e8184610b4b565b905092915050565b600080fd5b600073ffffffffffffffffffffffffffffffffffffffff82169050919050565b6000610bd682610bab565b9050919050565b610be681610bcb565b8114610bf157600080fd5b50565b600081359050610c0381610bdd565b92915050565b6000819050919050565b610c1c81610c09565b8114610c2757600080fd5b50565b600081359050610c3981610c13565b92915050565b60008060408385031215610c5657610c55610ba6565b5b6000610c6485828601610bf4565b9250506020610c7585828601610c2a565b9150509250929050565b60008115159050919050565b610c9481610c7f565b82525050565b6000602082019050610caf6000830184610c8b565b92915050565b610cbe81610c09565b82525050565b6000602082019050610cd96000830184610cb5565b92915050565b600080600060608486031215610cf857610cf7610ba6565b5b6000610d0686828701610bf4565b9350506020610d1786828701610bf4565b9250506040610d2886828701610c2a565b9150509250925092565b600060ff82169050919050565b610d4881610d32565b82525050565b6000602082019050610d636000830184610d3f565b92915050565b600060208284031215610d7f57610d7e610ba6565b5b6000610d8d84828501610bf4565b91505092915050565b60008060408385031215610dad57610dac610ba6565b5b6000610dbb85828601610bf4565b9250506020610dcc85828601610bf4565b9150509250929050565b7f4e487b7100000000000000000000000000000000000000000000000000000000600052600160045260246000fd5b7f4e487b7100000000000000000000000000000000000000000000000000000000600052601160045260246000fd5b6000610e3f82610c09565b9150610e4a83610c09565b925082821015610e5d57610e5c610e05565b5b828203905092915050565b6000610e7382610c09565b9150610e7e83610c09565b9250827fffffffffffffffffffffffffffffffffffffffffffffffffffffffffffffffff03821115610eb357610eb2610e05565b5b82820190509291505056fea264697066735822122056afa77bb9cafb1ce5d02b127ede855b71a417bb0a1e0666b0eb9799bceb456564736f6c634300080c0033",
  "immutableReferences": {},
  "source": "//SPDX-License-Identifier: UNLICENSED\r\npragma solidity ^0.8.10;\r\n\r\nimport \"./BlueCoin.sol\";\r\n\r\ncontract LuckyBlue {\r\n\r\n    IERC20 public token; \r\n    //event Bought(uint256 amount);\r\n    //event Sold(uint256 amount);\r\n\r\n    receive() external payable {}\r\n\r\n    fallback() external payable {}\r\n\r\n    uint256 public ContractValue;\r\n    address public cedric;\r\n    address public jack;\r\n    address[] public players;\r\n    Vendor[] public vendors;\r\n    uint256 numGames = 0;\r\n    uint256 vendorFee = 2;\r\n    uint256 playerFee = 2;\r\n    uint256 addGameFee = 1;\r\n\r\n    struct Vendor {\r\n        address payable vendorAddress;\r\n        uint256 numVendorGames;\r\n    }\r\n\r\n    constructor() payable {\r\n        cedric = 0x37813e4e4C751F902763FF5A00337Bb715a79A79;\r\n        jack = 0xf667Eb467304D505B9fD484Aa622B9213c1B8920;\r\n        ContractValue = msg.value;\r\n        token = new BlueCoin(100000);\r\n    }\r\n\r\n\r\n    // function buy() payable public {\r\n    //     uint256 amountTobuy = msg.value;\r\n    //     uint256 dexBalance = token.balanceOf(address(this));\r\n    //     require(amountTobuy > 0, \"You need to send some ether\");\r\n    //     require(amountTobuy <= dexBalance, \"Not enough tokens in the reserve\");\r\n    //     token.transfer(msg.sender, amountTobuy);\r\n    //     emit Bought(amountTobuy);\r\n    // }\r\n\r\n    // function sell(uint256 amount) public {\r\n    //     require(amount > 0, \"You need to sell at least some tokens\");\r\n    //     uint256 allowance = token.allowance(msg.sender, address(this));\r\n    //     require(allowance >= amount, \"Check the token allowance\");\r\n    //     token.transferFrom(msg.sender, address(this), amount);\r\n    //     payable(msg.sender).transfer(amount);\r\n    //     emit Sold(amount);\r\n    // }\r\n\r\n\r\n    function getBalance() public view returns (uint256) {\r\n        return (address(this).balance / (1 ether));\r\n    }\r\n\r\n    function extractValue() public payable {\r\n        require(\r\n            msg.value <= ContractValue,\r\n            \"Requested value is more than contract's balance\"\r\n        );\r\n        require(\r\n            payable(msg.sender) == jack || payable(msg.sender) == cedric,\r\n            \"You are not an owner\"\r\n        );\r\n\r\n        uint256 ownerCut = msg.value / 2;\r\n        payable(jack).transfer(ownerCut);\r\n        payable(cedric).transfer(ownerCut);\r\n        bool sent = payable(msg.sender).send(msg.value);\r\n        require(sent, \"Failed to send Ether\");\r\n        ContractValue = address(this).balance - (msg.value);\r\n    }\r\n\r\n    // Registers a player\r\n    function RegisterPlayer() public payable {\r\n        require(msg.value >= playerFee, \"Not enough Blue Coin!\"); //pay fee\r\n        require(\r\n            CheckPlayer(payable(msg.sender)) == false,\r\n            \"You are already a player\"\r\n        );\r\n        players.push(payable(msg.sender)); //added to list\r\n        uint256 vendorCut = msg.value / 2;\r\n        ContractValue = address(this).balance + (msg.value / 2);\r\n        PayVendors(uint256(vendorCut)); //sends cut to vendors\r\n        //token.transfer(jack, (msg.value/2));\r\n        token.approve(jack, 1000);\r\n    }\r\n\r\n    // Deregisters a player\r\n    function DeregisterPlayer() public {\r\n        require(\r\n            CheckPlayer(payable(msg.sender)) == true,\r\n            \"You are not a player\"\r\n        );\r\n        for (uint256 i = 0; i < players.length; i++) {\r\n            if (players[i] == msg.sender) {\r\n                players[i] = players[players.length - 1];\r\n                players.pop();\r\n                return;\r\n            }\r\n        }\r\n    }\r\n\r\n    // Registers a Vendor\r\n    function RegisterVendor() public payable {\r\n        require(msg.value >= vendorFee, \"Not enough Blue Coin!\");\r\n        require(\r\n            CheckVendor(payable(msg.sender)) == false,\r\n            \"You are already a vendor\"\r\n        );\r\n        vendors.push(\r\n            Vendor({vendorAddress: payable(msg.sender), numVendorGames: 0})\r\n        ); //added to list\r\n        ContractValue = address(this).balance + msg.value;\r\n    }\r\n\r\n    // Deregisters a Vendor\r\n    function DeregisterVendor() public {\r\n        require(\r\n            CheckVendor(payable(msg.sender)) == true,\r\n            \"You are not a vendor\"\r\n        );\r\n        for (uint256 i = 0; i < vendors.length; i++) {\r\n            if (vendors[i].vendorAddress == msg.sender) {\r\n                vendors[i] = vendors[vendors.length - 1];\r\n                vendors.pop();\r\n                return;\r\n            }\r\n        }\r\n    }\r\n\r\n    // Checks if a player is registered\r\n    function CheckPlayer(address payable player) public view returns (bool) {\r\n        for (uint256 i = 0; i < players.length; i++) {\r\n            if (players[i] == player) return true;\r\n        }\r\n        return false;\r\n    }\r\n\r\n    // Checks if a vendor is registered\r\n    function CheckVendor(address payable vendor) public view returns (bool) {\r\n        for (uint256 i = 0; i < vendors.length; i++) {\r\n            if (vendors[i].vendorAddress == vendor) return true;\r\n        }\r\n        return false;\r\n    }\r\n\r\n    //pays vendors thier cut\r\n    function PayVendors(uint256 vendorCut) public payable {\r\n        uint256 vendorPayment = vendorCut / vendors.length;\r\n        for (uint256 i = 0; i < vendors.length; i++) {\r\n            vendors[i].vendorAddress.transfer((vendorPayment));\r\n        }\r\n        ContractValue = address(this).balance - vendorCut;\r\n    }\r\n\r\n    //adds a game to from a vendor\r\n    function AddGame() public payable {\r\n        require(msg.value >= addGameFee, \"Not enough Blue Coin!\");\r\n        require(\r\n            CheckVendor(payable(msg.sender)) == true,\r\n            \"Not a registered vendor\"\r\n        );\r\n        numGames = numGames + 1;\r\n        for (uint256 i = 0; i < vendors.length; i++) {\r\n            if (vendors[i].vendorAddress == msg.sender) {\r\n                vendors[i].numVendorGames = vendors[i].numVendorGames + 1;\r\n            }\r\n        }\r\n        ContractValue = address(this).balance + msg.value;\r\n    }\r\n\r\n\r\n    // function exchange_eth(address payable_adr, uint256 amt) public payable{\r\n    //     payable(payable_adr).transfer(amt);\r\n    // }\r\n\r\n    \r\n}\r\n",
  "sourcePath": "C:\\Users\\jka29\\Documents\\UB Spring 2022\\CSE426\\Lucky_Blue-1\\contract\\contracts\\LuckyBlue.sol",
  "compiler": {
    "name": "solc",
    "version": "0.8.12+commit.f00d7308.Emscripten.clang"
  },
  "schemaVersion": "3.4.5",
  "updatedAt": "2022-05-03T21:21:39.380Z",
  "networkType": "ethereum",
  "devdoc": {
    "kind": "dev",
    "methods": {},
    "version": 1
  },
  "userdoc": {
    "kind": "user",
    "methods": {},
    "version": 1
  }
}