{
  "contractName": "LuckyBlue",
  "abi": [
    {
      "inputs": [],
      "stateMutability": "payable",
      "type": "constructor",
      "payable": true
    },
    {
      "stateMutability": "payable",
      "type": "fallback",
      "payable": true
    },
    {
      "inputs": [],
      "name": "BlueCoin_address",
      "outputs": [
        {
          "internalType": "address",
          "name": "",
          "type": "address"
        }
      ],
      "stateMutability": "view",
      "type": "function",
      "constant": true
    },
    {
      "inputs": [],
      "name": "ContractValue",
      "outputs": [
        {
          "internalType": "uint256",
          "name": "",
          "type": "uint256"
        }
      ],
      "stateMutability": "view",
      "type": "function",
      "constant": true
    },
    {
      "inputs": [],
      "name": "cedric",
      "outputs": [
        {
          "internalType": "address",
          "name": "",
          "type": "address"
        }
      ],
      "stateMutability": "view",
      "type": "function",
      "constant": true
    },
    {
      "inputs": [],
      "name": "jack",
      "outputs": [
        {
          "internalType": "address",
          "name": "",
          "type": "address"
        }
      ],
      "stateMutability": "view",
      "type": "function",
      "constant": true
    },
    {
      "inputs": [
        {
          "internalType": "uint256",
          "name": "",
          "type": "uint256"
        }
      ],
      "name": "players",
      "outputs": [
        {
          "internalType": "address",
          "name": "",
          "type": "address"
        }
      ],
      "stateMutability": "view",
      "type": "function",
      "constant": true
    },
    {
      "inputs": [
        {
          "internalType": "uint256",
          "name": "",
          "type": "uint256"
        }
      ],
      "name": "vendors",
      "outputs": [
        {
          "internalType": "address payable",
          "name": "vendorAddress",
          "type": "address"
        },
        {
          "internalType": "uint256",
          "name": "numVendorGames",
          "type": "uint256"
        }
      ],
      "stateMutability": "view",
      "type": "function",
      "constant": true
    },
    {
      "stateMutability": "payable",
      "type": "receive",
      "payable": true
    },
    {
      "inputs": [],
      "name": "getBalance",
      "outputs": [
        {
          "internalType": "uint256",
          "name": "",
          "type": "uint256"
        }
      ],
      "stateMutability": "view",
      "type": "function",
      "constant": true
    },
    {
      "inputs": [],
      "name": "extractValue",
      "outputs": [],
      "stateMutability": "payable",
      "type": "function",
      "payable": true
    },
    {
      "inputs": [],
      "name": "RegisterPlayer",
      "outputs": [],
      "stateMutability": "payable",
      "type": "function",
      "payable": true
    },
    {
      "inputs": [],
      "name": "DeregisterPlayer",
      "outputs": [],
      "stateMutability": "nonpayable",
      "type": "function"
    },
    {
      "inputs": [],
      "name": "RegisterVendor",
      "outputs": [],
      "stateMutability": "payable",
      "type": "function",
      "payable": true
    },
    {
      "inputs": [],
      "name": "DeregisterVendor",
      "outputs": [],
      "stateMutability": "nonpayable",
      "type": "function"
    },
    {
      "inputs": [
        {
          "internalType": "address payable",
          "name": "player",
          "type": "address"
        }
      ],
      "name": "CheckPlayer",
      "outputs": [
        {
          "internalType": "bool",
          "name": "",
          "type": "bool"
        }
      ],
      "stateMutability": "view",
      "type": "function",
      "constant": true
    },
    {
      "inputs": [
        {
          "internalType": "address payable",
          "name": "vendor",
          "type": "address"
        }
      ],
      "name": "CheckVendor",
      "outputs": [
        {
          "internalType": "bool",
          "name": "",
          "type": "bool"
        }
      ],
      "stateMutability": "view",
      "type": "function",
      "constant": true
    },
    {
      "inputs": [
        {
          "internalType": "uint256",
          "name": "vendorCut",
          "type": "uint256"
        }
      ],
      "name": "PayVendors",
      "outputs": [],
      "stateMutability": "payable",
      "type": "function",
      "payable": true
    },
    {
      "inputs": [],
      "name": "AddGame",
      "outputs": [],
      "stateMutability": "payable",
      "type": "function",
      "payable": true
    }
  ],
  "bytecode": "0x608060405260006005556002600655600260075560016008557337813e4e4c751f902763ff5a00337bb715a79a79600160006101000a81548173ffffffffffffffffffffffffffffffffffffffff021916908373ffffffffffffffffffffffffffffffffffffffff16021790555073f667eb467304d505b9fd484aa622b9213c1b8920600260006101000a81548173ffffffffffffffffffffffffffffffffffffffff021916908373ffffffffffffffffffffffffffffffffffffffff16021790555034600081905550738eb8431eaa2dd9c4b804a176b6ac0eee37cd9e12600960006101000a81548173ffffffffffffffffffffffffffffffffffffffff021916908373ffffffffffffffffffffffffffffffffffffffff1602179055506000600960009054906101000a900473ffffffffffffffffffffffffffffffffffffffff1690508073ffffffffffffffffffffffffffffffffffffffff166318160ddd6040518163ffffffff1660e01b8152600401602060405180830381865afa15801562000191573d6000803e3d6000fd5b505050506040513d601f19601f82011682018060405250810190620001b79190620001ff565b505062000231565b600080fd5b6000819050919050565b620001d981620001c4565b8114620001e557600080fd5b50565b600081519050620001f981620001ce565b92915050565b600060208284031215620002185762000217620001bf565b5b60006200022884828501620001e8565b91505092915050565b61193680620002416000396000f3fe6080604052600436106100f75760003560e01c80638e10c8c51161008a578063cabc05d011610059578063cabc05d0146102b7578063f6246c0f146102d3578063f71d96cb146102ea578063f840a8a614610327576100fe565b80638e10c8c5146101f557806393a4ce6114610232578063a08d986d1461023c578063a821c6d41461027a576100fe565b80633c5b0053116100c65780633c5b00531461018b578063595cd96f1461019557806378c8769b1461019f578063873babff146101ca576100fe565b8063038ec0e414610100578063054171431461012b57806312065fe014610156578063131c452114610181576100fe565b366100fe57005b005b34801561010c57600080fd5b5061011561033e565b60405161012291906111b7565b60405180910390f35b34801561013757600080fd5b50610140610364565b60405161014d91906111b7565b60405180910390f35b34801561016257600080fd5b5061016b61038a565b60405161017891906111eb565b60405180910390f35b6101896103a5565b005b610193610644565b005b61019d6107fa565b005b3480156101ab57600080fd5b506101b461094c565b6040516101c191906111b7565b60405180910390f35b3480156101d657600080fd5b506101df610972565b6040516101ec91906111eb565b60405180910390f35b34801561020157600080fd5b5061021c60048036038101906102179190611249565b610978565b6040516102299190611291565b60405180910390f35b61023a610a27565b005b34801561024857600080fd5b50610263600480360381019061025e91906112d8565b610b59565b604051610271929190611314565b60405180910390f35b34801561028657600080fd5b506102a1600480360381019061029c9190611249565b610bad565b6040516102ae9190611291565b60405180910390f35b6102d160048036038101906102cc91906112d8565b610c63565b005b3480156102df57600080fd5b506102e8610d3e565b005b3480156102f657600080fd5b50610311600480360381019061030c91906112d8565b610f56565b60405161031e91906111b7565b60405180910390f35b34801561033357600080fd5b5061033c610f95565b005b600960009054906101000a900473ffffffffffffffffffffffffffffffffffffffff1681565b600260009054906101000a900473ffffffffffffffffffffffffffffffffffffffff1681565b6000670de0b6b3a7640000476103a0919061139b565b905090565b6000543411156103ea576040517f08c379a00000000000000000000000000000000000000000000000000000000081526004016103e19061144f565b60405180910390fd5b600260009054906101000a900473ffffffffffffffffffffffffffffffffffffffff1673ffffffffffffffffffffffffffffffffffffffff163373ffffffffffffffffffffffffffffffffffffffff1614806104935750600160009054906101000a900473ffffffffffffffffffffffffffffffffffffffff1673ffffffffffffffffffffffffffffffffffffffff163373ffffffffffffffffffffffffffffffffffffffff16145b6104d2576040517f08c379a00000000000000000000000000000000000000000000000000000000081526004016104c9906114bb565b60405180910390fd5b60006002346104e1919061139b565b9050600260009054906101000a900473ffffffffffffffffffffffffffffffffffffffff1673ffffffffffffffffffffffffffffffffffffffff166108fc829081150290604051600060405180830381858888f1935050505015801561054b573d6000803e3d6000fd5b50600160009054906101000a900473ffffffffffffffffffffffffffffffffffffffff1673ffffffffffffffffffffffffffffffffffffffff166108fc829081150290604051600060405180830381858888f193505050501580156105b4573d6000803e3d6000fd5b5060003373ffffffffffffffffffffffffffffffffffffffff166108fc349081150290604051600060405180830381858888f1935050505090508061062e576040517f08c379a000000000000000000000000000000000000000000000000000000000815260040161062590611527565b60405180910390fd5b344761063a9190611547565b6000819055505050565b600854341015610689576040517f08c379a0000000000000000000000000000000000000000000000000000000008152600401610680906115c7565b60405180910390fd5b6001151561069633610bad565b1515146106d8576040517f08c379a00000000000000000000000000000000000000000000000000000000081526004016106cf90611633565b60405180910390fd5b60016005546106e79190611653565b60058190555060005b6004805490508110156107e5573373ffffffffffffffffffffffffffffffffffffffff1660048281548110610728576107276116a9565b5b906000526020600020906002020160000160009054906101000a900473ffffffffffffffffffffffffffffffffffffffff1673ffffffffffffffffffffffffffffffffffffffff1614156107d25760016004828154811061078c5761078b6116a9565b5b9060005260206000209060020201600101546107a89190611653565b600482815481106107bc576107bb6116a9565b5b9060005260206000209060020201600101819055505b80806107dd906116d8565b9150506106f0565b5034476107f29190611653565b600081905550565b60065434101561083f576040517f08c379a0000000000000000000000000000000000000000000000000000000008152600401610836906115c7565b60405180910390fd5b6000151561084c33610bad565b15151461088e576040517f08c379a00000000000000000000000000000000000000000000000000000000081526004016108859061176d565b60405180910390fd5b600460405180604001604052803373ffffffffffffffffffffffffffffffffffffffff1681526020016000815250908060018154018082558091505060019003906000526020600020906002020160009091909190915060008201518160000160006101000a81548173ffffffffffffffffffffffffffffffffffffffff021916908373ffffffffffffffffffffffffffffffffffffffff16021790555060208201518160010155505034476109449190611653565b600081905550565b600160009054906101000a900473ffffffffffffffffffffffffffffffffffffffff1681565b60005481565b600080600090505b600380549050811015610a1c578273ffffffffffffffffffffffffffffffffffffffff16600382815481106109b8576109b76116a9565b5b9060005260206000200160009054906101000a900473ffffffffffffffffffffffffffffffffffffffff1673ffffffffffffffffffffffffffffffffffffffff161415610a09576001915050610a22565b8080610a14906116d8565b915050610980565b50600090505b919050565b600754341015610a6c576040517f08c379a0000000000000000000000000000000000000000000000000000000008152600401610a63906115c7565b60405180910390fd5b60001515610a7933610978565b151514610abb576040517f08c379a0000000000000000000000000000000000000000000000000000000008152600401610ab2906117d9565b60405180910390fd5b6003339080600181540180825580915050600190039060005260206000200160009091909190916101000a81548173ffffffffffffffffffffffffffffffffffffffff021916908373ffffffffffffffffffffffffffffffffffffffff1602179055506000600234610b2d919061139b565b9050600234610b3c919061139b565b47610b479190611653565b600081905550610b5681610c63565b50565b60048181548110610b6957600080fd5b90600052602060002090600202016000915090508060000160009054906101000a900473ffffffffffffffffffffffffffffffffffffffff16908060010154905082565b600080600090505b600480549050811015610c58578273ffffffffffffffffffffffffffffffffffffffff1660048281548110610bed57610bec6116a9565b5b906000526020600020906002020160000160009054906101000a900473ffffffffffffffffffffffffffffffffffffffff1673ffffffffffffffffffffffffffffffffffffffff161415610c45576001915050610c5e565b8080610c50906116d8565b915050610bb5565b50600090505b919050565b600060048054905082610c76919061139b565b905060005b600480549050811015610d275760048181548110610c9c57610c9b6116a9565b5b906000526020600020906002020160000160009054906101000a900473ffffffffffffffffffffffffffffffffffffffff1673ffffffffffffffffffffffffffffffffffffffff166108fc839081150290604051600060405180830381858888f19350505050158015610d13573d6000803e3d6000fd5b508080610d1f906116d8565b915050610c7b565b508147610d349190611547565b6000819055505050565b60011515610d4b33610bad565b151514610d8d576040517f08c379a0000000000000000000000000000000000000000000000000000000008152600401610d8490611845565b60405180910390fd5b60005b600480549050811015610f52573373ffffffffffffffffffffffffffffffffffffffff1660048281548110610dc857610dc76116a9565b5b906000526020600020906002020160000160009054906101000a900473ffffffffffffffffffffffffffffffffffffffff1673ffffffffffffffffffffffffffffffffffffffff161415610f3f5760046001600480549050610e2a9190611547565b81548110610e3b57610e3a6116a9565b5b906000526020600020906002020160048281548110610e5d57610e5c6116a9565b5b90600052602060002090600202016000820160009054906101000a900473ffffffffffffffffffffffffffffffffffffffff168160000160006101000a81548173ffffffffffffffffffffffffffffffffffffffff021916908373ffffffffffffffffffffffffffffffffffffffff160217905550600182015481600101559050506004805480610ef157610ef0611865565b5b6001900381819060005260206000209060020201600080820160006101000a81549073ffffffffffffffffffffffffffffffffffffffff021916905560018201600090555050905550610f54565b8080610f4a906116d8565b915050610d90565b505b565b60038181548110610f6657600080fd5b906000526020600020016000915054906101000a900473ffffffffffffffffffffffffffffffffffffffff1681565b60011515610fa233610978565b151514610fe4576040517f08c379a0000000000000000000000000000000000000000000000000000000008152600401610fdb906118e0565b60405180910390fd5b60005b600380549050811015611172573373ffffffffffffffffffffffffffffffffffffffff166003828154811061101f5761101e6116a9565b5b9060005260206000200160009054906101000a900473ffffffffffffffffffffffffffffffffffffffff1673ffffffffffffffffffffffffffffffffffffffff16141561115f576003600160038054905061107a9190611547565b8154811061108b5761108a6116a9565b5b9060005260206000200160009054906101000a900473ffffffffffffffffffffffffffffffffffffffff16600382815481106110ca576110c96116a9565b5b9060005260206000200160006101000a81548173ffffffffffffffffffffffffffffffffffffffff021916908373ffffffffffffffffffffffffffffffffffffffff160217905550600380548061112457611123611865565b5b6001900381819060005260206000200160006101000a81549073ffffffffffffffffffffffffffffffffffffffff0219169055905550611174565b808061116a906116d8565b915050610fe7565b505b565b600073ffffffffffffffffffffffffffffffffffffffff82169050919050565b60006111a182611176565b9050919050565b6111b181611196565b82525050565b60006020820190506111cc60008301846111a8565b92915050565b6000819050919050565b6111e5816111d2565b82525050565b600060208201905061120060008301846111dc565b92915050565b600080fd5b600061121682611176565b9050919050565b6112268161120b565b811461123157600080fd5b50565b6000813590506112438161121d565b92915050565b60006020828403121561125f5761125e611206565b5b600061126d84828501611234565b91505092915050565b60008115159050919050565b61128b81611276565b82525050565b60006020820190506112a66000830184611282565b92915050565b6112b5816111d2565b81146112c057600080fd5b50565b6000813590506112d2816112ac565b92915050565b6000602082840312156112ee576112ed611206565b5b60006112fc848285016112c3565b91505092915050565b61130e8161120b565b82525050565b60006040820190506113296000830185611305565b61133660208301846111dc565b9392505050565b7f4e487b7100000000000000000000000000000000000000000000000000000000600052601260045260246000fd5b7f4e487b7100000000000000000000000000000000000000000000000000000000600052601160045260246000fd5b60006113a6826111d2565b91506113b1836111d2565b9250826113c1576113c061133d565b5b828204905092915050565b600082825260208201905092915050565b7f5265717565737465642076616c7565206973206d6f7265207468616e20636f6e60008201527f747261637427732062616c616e63650000000000000000000000000000000000602082015250565b6000611439602f836113cc565b9150611444826113dd565b604082019050919050565b600060208201905081810360008301526114688161142c565b9050919050565b7f596f7520617265206e6f7420616e206f776e6572000000000000000000000000600082015250565b60006114a56014836113cc565b91506114b08261146f565b602082019050919050565b600060208201905081810360008301526114d481611498565b9050919050565b7f4661696c656420746f2073656e64204574686572000000000000000000000000600082015250565b60006115116014836113cc565b915061151c826114db565b602082019050919050565b6000602082019050818103600083015261154081611504565b9050919050565b6000611552826111d2565b915061155d836111d2565b9250828210156115705761156f61136c565b5b828203905092915050565b7f4e6f7420656e6f75676820426c756520436f696e210000000000000000000000600082015250565b60006115b16015836113cc565b91506115bc8261157b565b602082019050919050565b600060208201905081810360008301526115e0816115a4565b9050919050565b7f4e6f74206120726567697374657265642076656e646f72000000000000000000600082015250565b600061161d6017836113cc565b9150611628826115e7565b602082019050919050565b6000602082019050818103600083015261164c81611610565b9050919050565b600061165e826111d2565b9150611669836111d2565b9250827fffffffffffffffffffffffffffffffffffffffffffffffffffffffffffffffff0382111561169e5761169d61136c565b5b828201905092915050565b7f4e487b7100000000000000000000000000000000000000000000000000000000600052603260045260246000fd5b60006116e3826111d2565b91507fffffffffffffffffffffffffffffffffffffffffffffffffffffffffffffffff8214156117165761171561136c565b5b600182019050919050565b7f596f752061726520616c726561647920612076656e646f720000000000000000600082015250565b60006117576018836113cc565b915061176282611721565b602082019050919050565b600060208201905081810360008301526117868161174a565b9050919050565b7f596f752061726520616c7265616479206120706c617965720000000000000000600082015250565b60006117c36018836113cc565b91506117ce8261178d565b602082019050919050565b600060208201905081810360008301526117f2816117b6565b9050919050565b7f596f7520617265206e6f7420612076656e646f72000000000000000000000000600082015250565b600061182f6014836113cc565b915061183a826117f9565b602082019050919050565b6000602082019050818103600083015261185e81611822565b9050919050565b7f4e487b7100000000000000000000000000000000000000000000000000000000600052603160045260246000fd5b7f596f7520617265206e6f74206120706c61796572000000000000000000000000600082015250565b60006118ca6014836113cc565b91506118d582611894565b602082019050919050565b600060208201905081810360008301526118f9816118bd565b905091905056fea26469706673582212208855d3e74e4bd20777eec9a8e341f6496d1129297355c1cf163a8606e0a2898b64736f6c634300080c0033",
  "immutableReferences": {},
  "source": "//SPDX-License-Identifier: UNLICENSED\r\npragma solidity ^0.8.10;\r\n\r\nimport \"./BlueCoin.sol\";\r\n\r\ncontract LuckyBlue {\r\n\r\n    //IERC20 public token; \r\n    //event Bought(uint256 amount);\r\n    //event Sold(uint256 amount);\r\n\r\n    receive() external payable {}\r\n\r\n    fallback() external payable {}\r\n\r\n    uint256 public ContractValue;\r\n    address public cedric;\r\n    address public jack;\r\n    address[] public players;\r\n    Vendor[] public vendors;\r\n    uint256 numGames = 0;\r\n    uint256 vendorFee = 2;\r\n    uint256 playerFee = 2;\r\n    uint256 addGameFee = 1;\r\n    address public BlueCoin_address;\r\n\r\n    struct Vendor {\r\n        address payable vendorAddress;\r\n        uint256 numVendorGames;\r\n    }\r\n\r\n    constructor() payable {\r\n        cedric = 0x37813e4e4C751F902763FF5A00337Bb715a79A79;\r\n        jack = 0xf667Eb467304D505B9fD484Aa622B9213c1B8920;\r\n        ContractValue = msg.value;\r\n        BlueCoin_address = 0x8eB8431eaA2dd9c4B804A176b6Ac0eEE37cD9e12;\r\n        BlueCoin b = BlueCoin(BlueCoin_address);\r\n        //token = new BlueCoin(100000);\r\n        b.totalSupply();\r\n        \r\n    }\r\n\r\n    \r\n\r\n\r\n    // function buy() payable public {\r\n    //     uint256 amountTobuy = msg.value;\r\n    //     uint256 dexBalance = token.balanceOf(address(this));\r\n    //     require(amountTobuy > 0, \"You need to send some ether\");\r\n    //     require(amountTobuy <= dexBalance, \"Not enough tokens in the reserve\");\r\n    //     token.transfer(msg.sender, amountTobuy);\r\n    //     emit Bought(amountTobuy);\r\n    // }\r\n\r\n    // function sell(uint256 amount) public {\r\n    //     require(amount > 0, \"You need to sell at least some tokens\");\r\n    //     uint256 allowance = token.allowance(msg.sender, address(this));\r\n    //     require(allowance >= amount, \"Check the token allowance\");\r\n    //     token.transferFrom(msg.sender, address(this), amount);\r\n    //     payable(msg.sender).transfer(amount);\r\n    //     emit Sold(amount);\r\n    // }\r\n\r\n\r\n    function getBalance() public view returns (uint256) {\r\n        return (address(this).balance / (1 ether));\r\n    }\r\n\r\n    function extractValue() public payable {\r\n        require(\r\n            msg.value <= ContractValue,\r\n            \"Requested value is more than contract's balance\"\r\n        );\r\n        require(\r\n            payable(msg.sender) == jack || payable(msg.sender) == cedric,\r\n            \"You are not an owner\"\r\n        );\r\n\r\n        uint256 ownerCut = msg.value / 2;\r\n        payable(jack).transfer(ownerCut);\r\n        payable(cedric).transfer(ownerCut);\r\n        bool sent = payable(msg.sender).send(msg.value);\r\n        require(sent, \"Failed to send Ether\");\r\n        ContractValue = address(this).balance - (msg.value);\r\n    }\r\n\r\n    // Registers a player\r\n    function RegisterPlayer() public payable {\r\n        require(msg.value >= playerFee, \"Not enough Blue Coin!\"); //pay fee\r\n        require(\r\n            CheckPlayer(payable(msg.sender)) == false,\r\n            \"You are already a player\"\r\n        );\r\n        players.push(payable(msg.sender)); //added to list\r\n        uint256 vendorCut = msg.value / 2;\r\n        ContractValue = address(this).balance + (msg.value / 2);\r\n        PayVendors(uint256(vendorCut)); //sends cut to vendors\r\n        //token.transfer(jack, (msg.value/2));\r\n        //BlueCoin b = BlueCoin(0xf667Eb467304D505B9fD484Aa622B9213c1B8920);\r\n       // b.approve(delegate, numTokens);\r\n       \r\n       // token.approve(jack, 1000);\r\n    }\r\n\r\n    // Deregisters a player\r\n    function DeregisterPlayer() public {\r\n        require(\r\n            CheckPlayer(payable(msg.sender)) == true,\r\n            \"You are not a player\"\r\n        );\r\n        for (uint256 i = 0; i < players.length; i++) {\r\n            if (players[i] == msg.sender) {\r\n                players[i] = players[players.length - 1];\r\n                players.pop();\r\n                return;\r\n            }\r\n        }\r\n    }\r\n\r\n    // Registers a Vendor\r\n    function RegisterVendor() public payable {\r\n        require(msg.value >= vendorFee, \"Not enough Blue Coin!\");\r\n        require(\r\n            CheckVendor(payable(msg.sender)) == false,\r\n            \"You are already a vendor\"\r\n        );\r\n        vendors.push(\r\n            Vendor({vendorAddress: payable(msg.sender), numVendorGames: 0})\r\n        ); //added to list\r\n        ContractValue = address(this).balance + msg.value;\r\n    }\r\n\r\n    // Deregisters a Vendor\r\n    function DeregisterVendor() public {\r\n        require(\r\n            CheckVendor(payable(msg.sender)) == true,\r\n            \"You are not a vendor\"\r\n        );\r\n        for (uint256 i = 0; i < vendors.length; i++) {\r\n            if (vendors[i].vendorAddress == msg.sender) {\r\n                vendors[i] = vendors[vendors.length - 1];\r\n                vendors.pop();\r\n                return;\r\n            }\r\n        }\r\n    }\r\n\r\n    // Checks if a player is registered\r\n    function CheckPlayer(address payable player) public view returns (bool) {\r\n        for (uint256 i = 0; i < players.length; i++) {\r\n            if (players[i] == player) return true;\r\n        }\r\n        return false;\r\n    }\r\n\r\n    // Checks if a vendor is registered\r\n    function CheckVendor(address payable vendor) public view returns (bool) {\r\n        for (uint256 i = 0; i < vendors.length; i++) {\r\n            if (vendors[i].vendorAddress == vendor) return true;\r\n        }\r\n        return false;\r\n    }\r\n\r\n    //pays vendors thier cut\r\n    function PayVendors(uint256 vendorCut) public payable {\r\n        uint256 vendorPayment = vendorCut / vendors.length;\r\n        for (uint256 i = 0; i < vendors.length; i++) {\r\n            vendors[i].vendorAddress.transfer((vendorPayment));\r\n        }\r\n        ContractValue = address(this).balance - vendorCut;\r\n    }\r\n\r\n    //adds a game to from a vendor\r\n    function AddGame() public payable {\r\n        require(msg.value >= addGameFee, \"Not enough Blue Coin!\");\r\n        require(\r\n            CheckVendor(payable(msg.sender)) == true,\r\n            \"Not a registered vendor\"\r\n        );\r\n        numGames = numGames + 1;\r\n        for (uint256 i = 0; i < vendors.length; i++) {\r\n            if (vendors[i].vendorAddress == msg.sender) {\r\n                vendors[i].numVendorGames = vendors[i].numVendorGames + 1;\r\n            }\r\n        }\r\n        ContractValue = address(this).balance + msg.value;\r\n    }\r\n\r\n\r\n    // function exchange_eth(address payable_adr, uint256 amt) public payable{\r\n    //     payable(payable_adr).transfer(amt);\r\n    // }\r\n\r\n    \r\n}\r\n",
  "sourcePath": "C:\\Users\\jka29\\Documents\\UB Spring 2022\\CSE426\\Lucky_Blue-1\\contract\\contracts\\LuckyBlue.sol",
  "compiler": {
    "name": "solc",
    "version": "0.8.12+commit.f00d7308.Emscripten.clang"
  },
  "schemaVersion": "3.4.5",
  "updatedAt": "2022-05-03T22:15:35.643Z",
  "networkType": "ethereum",
  "devdoc": {
    "kind": "dev",
    "methods": {},
    "version": 1
  },
  "userdoc": {
    "kind": "user",
    "methods": {},
    "version": 1
  }
}