{
  "contractName": "LuckyBlue",
  "abi": [
    {
      "inputs": [],
      "stateMutability": "payable",
      "type": "constructor",
      "payable": true
    },
    {
      "stateMutability": "payable",
      "type": "fallback",
      "payable": true
    },
    {
      "inputs": [],
      "name": "ContractValue",
      "outputs": [
        {
          "internalType": "uint256",
          "name": "",
          "type": "uint256"
        }
      ],
      "stateMutability": "view",
      "type": "function",
      "constant": true
    },
    {
      "inputs": [],
      "name": "cedric",
      "outputs": [
        {
          "internalType": "address",
          "name": "",
          "type": "address"
        }
      ],
      "stateMutability": "view",
      "type": "function",
      "constant": true
    },
    {
      "inputs": [],
      "name": "jack",
      "outputs": [
        {
          "internalType": "address",
          "name": "",
          "type": "address"
        }
      ],
      "stateMutability": "view",
      "type": "function",
      "constant": true
    },
    {
      "inputs": [
        {
          "internalType": "uint256",
          "name": "",
          "type": "uint256"
        }
      ],
      "name": "players",
      "outputs": [
        {
          "internalType": "address",
          "name": "",
          "type": "address"
        }
      ],
      "stateMutability": "view",
      "type": "function",
      "constant": true
    },
    {
      "inputs": [
        {
          "internalType": "uint256",
          "name": "",
          "type": "uint256"
        }
      ],
      "name": "vendors",
      "outputs": [
        {
          "internalType": "address payable",
          "name": "vendorAddress",
          "type": "address"
        },
        {
          "internalType": "uint256",
          "name": "numVendorGames",
          "type": "uint256"
        }
      ],
      "stateMutability": "view",
      "type": "function",
      "constant": true
    },
    {
      "stateMutability": "payable",
      "type": "receive",
      "payable": true
    },
    {
      "inputs": [],
      "name": "getBalance",
      "outputs": [
        {
          "internalType": "uint256",
          "name": "",
          "type": "uint256"
        }
      ],
      "stateMutability": "view",
      "type": "function",
      "constant": true
    },
    {
      "inputs": [],
      "name": "extractValue",
      "outputs": [],
      "stateMutability": "payable",
      "type": "function",
      "payable": true
    },
    {
      "inputs": [],
      "name": "RegisterPlayer",
      "outputs": [],
      "stateMutability": "payable",
      "type": "function",
      "payable": true
    },
    {
      "inputs": [],
      "name": "DeregisterPlayer",
      "outputs": [],
      "stateMutability": "nonpayable",
      "type": "function"
    },
    {
      "inputs": [],
      "name": "RegisterVendor",
      "outputs": [],
      "stateMutability": "payable",
      "type": "function",
      "payable": true
    },
    {
      "inputs": [],
      "name": "DeregisterVendor",
      "outputs": [],
      "stateMutability": "nonpayable",
      "type": "function"
    },
    {
      "inputs": [
        {
          "internalType": "address payable",
          "name": "player",
          "type": "address"
        }
      ],
      "name": "CheckPlayer",
      "outputs": [
        {
          "internalType": "bool",
          "name": "",
          "type": "bool"
        }
      ],
      "stateMutability": "view",
      "type": "function",
      "constant": true
    },
    {
      "inputs": [
        {
          "internalType": "address payable",
          "name": "vendor",
          "type": "address"
        }
      ],
      "name": "CheckVendor",
      "outputs": [
        {
          "internalType": "bool",
          "name": "",
          "type": "bool"
        }
      ],
      "stateMutability": "view",
      "type": "function",
      "constant": true
    },
    {
      "inputs": [
        {
          "internalType": "uint256",
          "name": "vendorCut",
          "type": "uint256"
        }
      ],
      "name": "PayVendors",
      "outputs": [],
      "stateMutability": "payable",
      "type": "function",
      "payable": true
    },
    {
      "inputs": [],
      "name": "AddGame",
      "outputs": [],
      "stateMutability": "payable",
      "type": "function",
      "payable": true
    }
  ],
  "bytecode": "0x608060405260006005556001600655600a60075560056008557337813e4e4c751f902763ff5a00337bb715a79a79600160006101000a81548173ffffffffffffffffffffffffffffffffffffffff021916908373ffffffffffffffffffffffffffffffffffffffff16021790555073f667eb467304d505b9fd484aa622b9213c1b8920600260006101000a81548173ffffffffffffffffffffffffffffffffffffffff021916908373ffffffffffffffffffffffffffffffffffffffff16021790555034600081905550611961806100d86000396000f3fe6080604052600436106100ec5760003560e01c80638e10c8c51161008a578063cabc05d011610059578063cabc05d014610281578063f6246c0f1461029d578063f71d96cb146102b4578063f840a8a6146102f1576100f3565b80638e10c8c5146101bf57806393a4ce61146101fc578063a08d986d14610206578063a821c6d414610244576100f3565b80633c5b0053116100c65780633c5b005314610155578063595cd96f1461015f57806378c8769b14610169578063873babff14610194576100f3565b806305417143146100f557806312065fe014610120578063131c45211461014b576100f3565b366100f357005b005b34801561010157600080fd5b5061010a610308565b6040516101179190611188565b60405180910390f35b34801561012c57600080fd5b5061013561032e565b60405161014291906111bc565b60405180910390f35b610153610349565b005b61015d6105e8565b005b61016761079e565b005b34801561017557600080fd5b5061017e6108f0565b60405161018b9190611188565b60405180910390f35b3480156101a057600080fd5b506101a9610916565b6040516101b691906111bc565b60405180910390f35b3480156101cb57600080fd5b506101e660048036038101906101e1919061121a565b61091c565b6040516101f39190611262565b60405180910390f35b6102046109cb565b005b34801561021257600080fd5b5061022d600480360381019061022891906112a9565b610afd565b60405161023b9291906112e5565b60405180910390f35b34801561025057600080fd5b5061026b6004803603810190610266919061121a565b610b51565b6040516102789190611262565b60405180910390f35b61029b600480360381019061029691906112a9565b610c07565b005b3480156102a957600080fd5b506102b2610d0f565b005b3480156102c057600080fd5b506102db60048036038101906102d691906112a9565b610f27565b6040516102e89190611188565b60405180910390f35b3480156102fd57600080fd5b50610306610f66565b005b600260009054906101000a900473ffffffffffffffffffffffffffffffffffffffff1681565b6000670de0b6b3a764000047610344919061136c565b905090565b60005434111561038e576040517f08c379a000000000000000000000000000000000000000000000000000000000815260040161038590611420565b60405180910390fd5b600260009054906101000a900473ffffffffffffffffffffffffffffffffffffffff1673ffffffffffffffffffffffffffffffffffffffff163373ffffffffffffffffffffffffffffffffffffffff1614806104375750600160009054906101000a900473ffffffffffffffffffffffffffffffffffffffff1673ffffffffffffffffffffffffffffffffffffffff163373ffffffffffffffffffffffffffffffffffffffff16145b610476576040517f08c379a000000000000000000000000000000000000000000000000000000000815260040161046d9061148c565b60405180910390fd5b6000600234610485919061136c565b9050600260009054906101000a900473ffffffffffffffffffffffffffffffffffffffff1673ffffffffffffffffffffffffffffffffffffffff166108fc829081150290604051600060405180830381858888f193505050501580156104ef573d6000803e3d6000fd5b50600160009054906101000a900473ffffffffffffffffffffffffffffffffffffffff1673ffffffffffffffffffffffffffffffffffffffff166108fc829081150290604051600060405180830381858888f19350505050158015610558573d6000803e3d6000fd5b5060003373ffffffffffffffffffffffffffffffffffffffff166108fc349081150290604051600060405180830381858888f193505050509050806105d2576040517f08c379a00000000000000000000000000000000000000000000000000000000081526004016105c9906114f8565b60405180910390fd5b34476105de9190611518565b6000819055505050565b60085434101561062d576040517f08c379a000000000000000000000000000000000000000000000000000000000815260040161062490611598565b60405180910390fd5b6001151561063a33610b51565b15151461067c576040517f08c379a000000000000000000000000000000000000000000000000000000000815260040161067390611604565b60405180910390fd5b600160055461068b9190611624565b60058190555060005b600480549050811015610789573373ffffffffffffffffffffffffffffffffffffffff16600482815481106106cc576106cb61167a565b5b906000526020600020906002020160000160009054906101000a900473ffffffffffffffffffffffffffffffffffffffff1673ffffffffffffffffffffffffffffffffffffffff161415610776576001600482815481106107305761072f61167a565b5b90600052602060002090600202016001015461074c9190611624565b600482815481106107605761075f61167a565b5b9060005260206000209060020201600101819055505b8080610781906116a9565b915050610694565b5034476107969190611624565b600081905550565b6006543410156107e3576040517f08c379a00000000000000000000000000000000000000000000000000000000081526004016107da90611598565b60405180910390fd5b600015156107f033610b51565b151514610832576040517f08c379a00000000000000000000000000000000000000000000000000000000081526004016108299061173e565b60405180910390fd5b600460405180604001604052803373ffffffffffffffffffffffffffffffffffffffff1681526020016000815250908060018154018082558091505060019003906000526020600020906002020160009091909190915060008201518160000160006101000a81548173ffffffffffffffffffffffffffffffffffffffff021916908373ffffffffffffffffffffffffffffffffffffffff16021790555060208201518160010155505034476108e89190611624565b600081905550565b600160009054906101000a900473ffffffffffffffffffffffffffffffffffffffff1681565b60005481565b600080600090505b6003805490508110156109c0578273ffffffffffffffffffffffffffffffffffffffff166003828154811061095c5761095b61167a565b5b9060005260206000200160009054906101000a900473ffffffffffffffffffffffffffffffffffffffff1673ffffffffffffffffffffffffffffffffffffffff1614156109ad5760019150506109c6565b80806109b8906116a9565b915050610924565b50600090505b919050565b600754341015610a10576040517f08c379a0000000000000000000000000000000000000000000000000000000008152600401610a0790611598565b60405180910390fd5b60001515610a1d3361091c565b151514610a5f576040517f08c379a0000000000000000000000000000000000000000000000000000000008152600401610a56906117aa565b60405180910390fd5b6003339080600181540180825580915050600190039060005260206000200160009091909190916101000a81548173ffffffffffffffffffffffffffffffffffffffff021916908373ffffffffffffffffffffffffffffffffffffffff1602179055506000600234610ad1919061136c565b9050600234610ae0919061136c565b47610aeb9190611624565b600081905550610afa81610c07565b50565b60048181548110610b0d57600080fd5b90600052602060002090600202016000915090508060000160009054906101000a900473ffffffffffffffffffffffffffffffffffffffff16908060010154905082565b600080600090505b600480549050811015610bfc578273ffffffffffffffffffffffffffffffffffffffff1660048281548110610b9157610b9061167a565b5b906000526020600020906002020160000160009054906101000a900473ffffffffffffffffffffffffffffffffffffffff1673ffffffffffffffffffffffffffffffffffffffff161415610be9576001915050610c02565b8080610bf4906116a9565b915050610b59565b50600090505b919050565b600060055482610c17919061136c565b905060005b600480549050811015610cf85760048181548110610c3d57610c3c61167a565b5b906000526020600020906002020160000160009054906101000a900473ffffffffffffffffffffffffffffffffffffffff1673ffffffffffffffffffffffffffffffffffffffff166108fc60048381548110610c9c57610c9b61167a565b5b90600052602060002090600202016001015484610cb991906117ca565b9081150290604051600060405180830381858888f19350505050158015610ce4573d6000803e3d6000fd5b508080610cf0906116a9565b915050610c1c565b508147610d059190611518565b6000819055505050565b60011515610d1c33610b51565b151514610d5e576040517f08c379a0000000000000000000000000000000000000000000000000000000008152600401610d5590611870565b60405180910390fd5b60005b600480549050811015610f23573373ffffffffffffffffffffffffffffffffffffffff1660048281548110610d9957610d9861167a565b5b906000526020600020906002020160000160009054906101000a900473ffffffffffffffffffffffffffffffffffffffff1673ffffffffffffffffffffffffffffffffffffffff161415610f105760046001600480549050610dfb9190611518565b81548110610e0c57610e0b61167a565b5b906000526020600020906002020160048281548110610e2e57610e2d61167a565b5b90600052602060002090600202016000820160009054906101000a900473ffffffffffffffffffffffffffffffffffffffff168160000160006101000a81548173ffffffffffffffffffffffffffffffffffffffff021916908373ffffffffffffffffffffffffffffffffffffffff160217905550600182015481600101559050506004805480610ec257610ec1611890565b5b6001900381819060005260206000209060020201600080820160006101000a81549073ffffffffffffffffffffffffffffffffffffffff021916905560018201600090555050905550610f25565b8080610f1b906116a9565b915050610d61565b505b565b60038181548110610f3757600080fd5b906000526020600020016000915054906101000a900473ffffffffffffffffffffffffffffffffffffffff1681565b60011515610f733361091c565b151514610fb5576040517f08c379a0000000000000000000000000000000000000000000000000000000008152600401610fac9061190b565b60405180910390fd5b60005b600380549050811015611143573373ffffffffffffffffffffffffffffffffffffffff1660038281548110610ff057610fef61167a565b5b9060005260206000200160009054906101000a900473ffffffffffffffffffffffffffffffffffffffff1673ffffffffffffffffffffffffffffffffffffffff161415611130576003600160038054905061104b9190611518565b8154811061105c5761105b61167a565b5b9060005260206000200160009054906101000a900473ffffffffffffffffffffffffffffffffffffffff166003828154811061109b5761109a61167a565b5b9060005260206000200160006101000a81548173ffffffffffffffffffffffffffffffffffffffff021916908373ffffffffffffffffffffffffffffffffffffffff16021790555060038054806110f5576110f4611890565b5b6001900381819060005260206000200160006101000a81549073ffffffffffffffffffffffffffffffffffffffff0219169055905550611145565b808061113b906116a9565b915050610fb8565b505b565b600073ffffffffffffffffffffffffffffffffffffffff82169050919050565b600061117282611147565b9050919050565b61118281611167565b82525050565b600060208201905061119d6000830184611179565b92915050565b6000819050919050565b6111b6816111a3565b82525050565b60006020820190506111d160008301846111ad565b92915050565b600080fd5b60006111e782611147565b9050919050565b6111f7816111dc565b811461120257600080fd5b50565b600081359050611214816111ee565b92915050565b6000602082840312156112305761122f6111d7565b5b600061123e84828501611205565b91505092915050565b60008115159050919050565b61125c81611247565b82525050565b60006020820190506112776000830184611253565b92915050565b611286816111a3565b811461129157600080fd5b50565b6000813590506112a38161127d565b92915050565b6000602082840312156112bf576112be6111d7565b5b60006112cd84828501611294565b91505092915050565b6112df816111dc565b82525050565b60006040820190506112fa60008301856112d6565b61130760208301846111ad565b9392505050565b7f4e487b7100000000000000000000000000000000000000000000000000000000600052601260045260246000fd5b7f4e487b7100000000000000000000000000000000000000000000000000000000600052601160045260246000fd5b6000611377826111a3565b9150611382836111a3565b9250826113925761139161130e565b5b828204905092915050565b600082825260208201905092915050565b7f5265717565737465642076616c7565206973206d6f7265207468616e20636f6e60008201527f747261637427732062616c616e63650000000000000000000000000000000000602082015250565b600061140a602f8361139d565b9150611415826113ae565b604082019050919050565b60006020820190508181036000830152611439816113fd565b9050919050565b7f596f7520617265206e6f7420616e206f776e6572000000000000000000000000600082015250565b600061147660148361139d565b915061148182611440565b602082019050919050565b600060208201905081810360008301526114a581611469565b9050919050565b7f4661696c656420746f2073656e64204574686572000000000000000000000000600082015250565b60006114e260148361139d565b91506114ed826114ac565b602082019050919050565b60006020820190508181036000830152611511816114d5565b9050919050565b6000611523826111a3565b915061152e836111a3565b9250828210156115415761154061133d565b5b828203905092915050565b7f4e6f7420656e6f75676820426c756520436f696e210000000000000000000000600082015250565b600061158260158361139d565b915061158d8261154c565b602082019050919050565b600060208201905081810360008301526115b181611575565b9050919050565b7f4e6f74206120726567697374657265642076656e646f72000000000000000000600082015250565b60006115ee60178361139d565b91506115f9826115b8565b602082019050919050565b6000602082019050818103600083015261161d816115e1565b9050919050565b600061162f826111a3565b915061163a836111a3565b9250827fffffffffffffffffffffffffffffffffffffffffffffffffffffffffffffffff0382111561166f5761166e61133d565b5b828201905092915050565b7f4e487b7100000000000000000000000000000000000000000000000000000000600052603260045260246000fd5b60006116b4826111a3565b91507fffffffffffffffffffffffffffffffffffffffffffffffffffffffffffffffff8214156116e7576116e661133d565b5b600182019050919050565b7f596f752061726520616c726561647920612076656e646f720000000000000000600082015250565b600061172860188361139d565b9150611733826116f2565b602082019050919050565b600060208201905081810360008301526117578161171b565b9050919050565b7f596f752061726520616c7265616479206120706c617965720000000000000000600082015250565b600061179460188361139d565b915061179f8261175e565b602082019050919050565b600060208201905081810360008301526117c381611787565b9050919050565b60006117d5826111a3565b91506117e0836111a3565b9250817fffffffffffffffffffffffffffffffffffffffffffffffffffffffffffffffff04831182151516156118195761181861133d565b5b828202905092915050565b7f596f7520617265206e6f7420612076656e646f72000000000000000000000000600082015250565b600061185a60148361139d565b915061186582611824565b602082019050919050565b600060208201905081810360008301526118898161184d565b9050919050565b7f4e487b7100000000000000000000000000000000000000000000000000000000600052603160045260246000fd5b7f596f7520617265206e6f74206120706c61796572000000000000000000000000600082015250565b60006118f560148361139d565b9150611900826118bf565b602082019050919050565b60006020820190508181036000830152611924816118e8565b905091905056fea2646970667358221220c06175b1e17642beb4d363c352d397accd83e4174b7861cdd686c574916fea3f64736f6c634300080c0033",
  "immutableReferences": {},
  "source": "//SPDX-License-Identifier: UNLICENSED\r\npragma solidity ^0.8.10;\r\n\r\ncontract LuckyBlue {\r\n    receive() external payable {}\r\n\r\n    fallback() external payable {}\r\n\r\n    uint256 public ContractValue;\r\n    address public cedric;\r\n    address public jack;\r\n    address[] public players;\r\n    Vendor[] public vendors;\r\n    uint256 numGames = 0;\r\n    uint256 vendorFee = 1;\r\n    uint256 playerFee = 10;\r\n    uint256 addGameFee = 5;\r\n\r\n    struct Vendor {\r\n        address payable vendorAddress;\r\n        uint256 numVendorGames;\r\n    }\r\n\r\n    constructor() payable {\r\n        cedric = 0x37813e4e4C751F902763FF5A00337Bb715a79A79;\r\n        jack = 0xf667Eb467304D505B9fD484Aa622B9213c1B8920;\r\n        ContractValue = msg.value;\r\n    }\r\n\r\n    function getBalance() public view returns (uint256) {\r\n        return (address(this).balance / (1 ether));\r\n    }\r\n\r\n    function extractValue() public payable {\r\n        require(\r\n            msg.value <= ContractValue,\r\n            \"Requested value is more than contract's balance\"\r\n        );\r\n        require(\r\n            payable(msg.sender) == jack || payable(msg.sender) == cedric,\r\n            \"You are not an owner\"\r\n        );\r\n\r\n        uint256 ownerCut = msg.value/2;\r\n        payable(jack).transfer(ownerCut);\r\n        payable(cedric).transfer(ownerCut);\r\n        //payable(cedric).transfer(msg.value);\r\n        bool sent = payable(msg.sender).send(msg.value);\r\n        require(sent, \"Failed to send Ether\");\r\n        ContractValue = address(this).balance - (msg.value);\r\n    }\r\n\r\n    // Registers a player\r\n    function RegisterPlayer() public payable {\r\n        require(msg.value >= playerFee, \"Not enough Blue Coin!\"); //pay fee\r\n        require(\r\n            CheckPlayer(payable(msg.sender)) == false,\r\n            \"You are already a player\"\r\n        );\r\n        players.push(payable(msg.sender)); //added to list\r\n        //require(numGames > 0, \"No Games\");\r\n        uint256 vendorCut = msg.value / 2;\r\n       // uint256 ownerCut = msg.value / 2;\r\n        ContractValue = address(this).balance + (msg.value / 2);\r\n        PayVendors(uint256(vendorCut)); //sends cut to vendors\r\n        //PayOwners(uint256(ownerCut)); //sends cut to owners\r\n    }\r\n\r\n    // Deregisters a player\r\n    function DeregisterPlayer() public {\r\n        require(\r\n            CheckPlayer(payable(msg.sender)) == true,\r\n            \"You are not a player\"\r\n        );\r\n        for (uint256 i = 0; i < players.length; i++) {\r\n            if (players[i] == msg.sender) {\r\n                players[i] = players[players.length - 1];\r\n                players.pop();\r\n                return;\r\n            }\r\n        }\r\n    }\r\n\r\n    // Registers a Vendor\r\n    function RegisterVendor() public payable {\r\n        require(msg.value >= vendorFee, \"Not enough Blue Coin!\"); //takes inital game and payment\r\n        require(\r\n            CheckVendor(payable(msg.sender)) == false,\r\n            \"You are already a vendor\"\r\n        );\r\n        vendors.push(\r\n            Vendor({vendorAddress: payable(msg.sender), numVendorGames: 0})\r\n        ); //added to list\r\n        ContractValue = address(this).balance + msg.value;\r\n       // uint256 OwnerCut = msg.value;\r\n       // PayOwners(OwnerCut); //sends cut to vendors\r\n    }\r\n\r\n    // Deregisters a Vendor\r\n    function DeregisterVendor() public {\r\n        require(\r\n            CheckVendor(payable(msg.sender)) == true,\r\n            \"You are not a vendor\"\r\n        );\r\n        for (uint256 i = 0; i < vendors.length; i++) {\r\n            if (vendors[i].vendorAddress == msg.sender) {\r\n                vendors[i] = vendors[vendors.length - 1];\r\n                vendors.pop();\r\n                return;\r\n            }\r\n        }\r\n    }\r\n\r\n    // Checks if a player is registered\r\n    function CheckPlayer(address payable player) public view returns (bool) {\r\n        for (uint256 i = 0; i < players.length; i++) {\r\n            if (players[i] == player) return true;\r\n        }\r\n        return false;\r\n    }\r\n\r\n    // Checks if a vendor is registered\r\n    function CheckVendor(address payable vendor) public view returns (bool) {\r\n        for (uint256 i = 0; i < vendors.length; i++) {\r\n            if (vendors[i].vendorAddress == vendor) return true;\r\n        }\r\n        return false;\r\n    }\r\n\r\n    //pays vendors thier cut\r\n    function PayVendors(uint256 vendorCut) public payable {\r\n        uint256 payPerGame = vendorCut / numGames;\r\n        for (uint256 i = 0; i < vendors.length; i++) {\r\n            vendors[i].vendorAddress.transfer(\r\n                (payPerGame * vendors[i].numVendorGames)\r\n            );\r\n        }\r\n        ContractValue = address(this).balance - vendorCut;\r\n    }\r\n\r\n\r\n    //  function PayOwners(uint256 ownerCut) public payable {\r\n    //     uint256 pay = ownerCut/2;\r\n    //     payable(jack).transfer(pay);\r\n    //     payable(cedric).transfer(pay);\r\n    //     ContractValue = address(this).balance - ownerCut;\r\n    // }\r\n\r\n    //adds a game to from a vendor\r\n    function AddGame() public payable {\r\n        require(msg.value >= addGameFee, \"Not enough Blue Coin!\");\r\n        require(\r\n            CheckVendor(payable(msg.sender)) == true,\r\n            \"Not a registered vendor\"\r\n        );\r\n        numGames = numGames + 1;\r\n        for (uint256 i = 0; i < vendors.length; i++) {\r\n            if (vendors[i].vendorAddress == msg.sender) {\r\n                vendors[i].numVendorGames = vendors[i].numVendorGames + 1;\r\n            }\r\n        }\r\n        ContractValue = address(this).balance + msg.value;\r\n    }\r\n}\r\n",
  "sourcePath": "C:\\Users\\jka29\\Documents\\UB Spring 2022\\CSE426\\Lucky_Blue\\contract\\contracts\\LuckyBlue.sol",
  "compiler": {
    "name": "solc",
    "version": "0.8.12+commit.f00d7308.Emscripten.clang"
  },
  "schemaVersion": "3.4.5",
  "updatedAt": "2022-04-15T20:03:36.309Z",
  "networkType": "ethereum",
  "devdoc": {
    "kind": "dev",
    "methods": {},
    "version": 1
  },
  "userdoc": {
    "kind": "user",
    "methods": {},
    "version": 1
  }
}