{
  "contractName": "LuckyBlue",
  "abi": [
    {
      "inputs": [],
      "stateMutability": "payable",
      "type": "constructor",
      "payable": true
    },
    {
      "stateMutability": "payable",
      "type": "fallback",
      "payable": true
    },
    {
      "inputs": [],
      "name": "ContractValue",
      "outputs": [
        {
          "internalType": "uint256",
          "name": "",
          "type": "uint256"
        }
      ],
      "stateMutability": "view",
      "type": "function",
      "constant": true
    },
    {
      "inputs": [],
      "name": "cedric",
      "outputs": [
        {
          "internalType": "address",
          "name": "",
          "type": "address"
        }
      ],
      "stateMutability": "view",
      "type": "function",
      "constant": true
    },
    {
      "inputs": [],
      "name": "jack",
      "outputs": [
        {
          "internalType": "address",
          "name": "",
          "type": "address"
        }
      ],
      "stateMutability": "view",
      "type": "function",
      "constant": true
    },
    {
      "inputs": [
        {
          "internalType": "uint256",
          "name": "",
          "type": "uint256"
        }
      ],
      "name": "players",
      "outputs": [
        {
          "internalType": "address",
          "name": "",
          "type": "address"
        }
      ],
      "stateMutability": "view",
      "type": "function",
      "constant": true
    },
    {
      "inputs": [
        {
          "internalType": "uint256",
          "name": "",
          "type": "uint256"
        }
      ],
      "name": "vendors",
      "outputs": [
        {
          "internalType": "address payable",
          "name": "vendorAddress",
          "type": "address"
        },
        {
          "internalType": "uint256",
          "name": "numVendorGames",
          "type": "uint256"
        }
      ],
      "stateMutability": "view",
      "type": "function",
      "constant": true
    },
    {
      "stateMutability": "payable",
      "type": "receive",
      "payable": true
    },
    {
      "inputs": [],
      "name": "getBalance",
      "outputs": [
        {
          "internalType": "uint256",
          "name": "",
          "type": "uint256"
        }
      ],
      "stateMutability": "view",
      "type": "function",
      "constant": true
    },
    {
      "inputs": [],
      "name": "RegisterPlayer",
      "outputs": [],
      "stateMutability": "payable",
      "type": "function",
      "payable": true
    },
    {
      "inputs": [],
      "name": "DeregisterPlayer",
      "outputs": [],
      "stateMutability": "nonpayable",
      "type": "function"
    },
    {
      "inputs": [],
      "name": "RegisterVendor",
      "outputs": [],
      "stateMutability": "payable",
      "type": "function",
      "payable": true
    },
    {
      "inputs": [],
      "name": "DeregisterVendor",
      "outputs": [],
      "stateMutability": "nonpayable",
      "type": "function"
    },
    {
      "inputs": [
        {
          "internalType": "address payable",
          "name": "player",
          "type": "address"
        }
      ],
      "name": "CheckPlayer",
      "outputs": [
        {
          "internalType": "bool",
          "name": "",
          "type": "bool"
        }
      ],
      "stateMutability": "view",
      "type": "function",
      "constant": true
    },
    {
      "inputs": [
        {
          "internalType": "address payable",
          "name": "vendor",
          "type": "address"
        }
      ],
      "name": "CheckVendor",
      "outputs": [
        {
          "internalType": "bool",
          "name": "",
          "type": "bool"
        }
      ],
      "stateMutability": "view",
      "type": "function",
      "constant": true
    },
    {
      "inputs": [
        {
          "internalType": "uint256",
          "name": "vendorCut",
          "type": "uint256"
        }
      ],
      "name": "PayVendors",
      "outputs": [],
      "stateMutability": "payable",
      "type": "function",
      "payable": true
    },
    {
      "inputs": [
        {
          "internalType": "uint256",
          "name": "ownerCut",
          "type": "uint256"
        }
      ],
      "name": "PayOwners",
      "outputs": [],
      "stateMutability": "payable",
      "type": "function",
      "payable": true
    },
    {
      "inputs": [],
      "name": "AddGame",
      "outputs": [],
      "stateMutability": "payable",
      "type": "function",
      "payable": true
    }
  ],
  "bytecode": "0x60806040526000600555600260065560026007556001600855732d0f7c3ab45f19b74930361d3ed552ac051f2678600160006101000a81548173ffffffffffffffffffffffffffffffffffffffff021916908373ffffffffffffffffffffffffffffffffffffffff160217905550732380d2460fefc293a545bac895c3407d46dc53fb600260006101000a81548173ffffffffffffffffffffffffffffffffffffffff021916908373ffffffffffffffffffffffffffffffffffffffff16021790555034600081905550611718806100d86000396000f3fe6080604052600436106100ec5760003560e01c80638e10c8c51161008a578063cabc05d011610059578063cabc05d014610293578063f6246c0f146102af578063f71d96cb146102c6578063f840a8a614610303576100f3565b80638e10c8c5146101d157806393a4ce611461020e578063a08d986d14610218578063a821c6d414610256576100f3565b8063595cd96f116100c6578063595cd96f1461015557806378c8769b1461015f5780637ebe750a1461018a578063873babff146101a6576100f3565b806305417143146100f557806312065fe0146101205780633c5b00531461014b576100f3565b366100f357005b005b34801561010157600080fd5b5061010a61031a565b604051610117919061103d565b60405180910390f35b34801561012c57600080fd5b50610135610340565b6040516101429190611071565b60405180910390f35b61015361035b565b005b61015d61051a565b005b34801561016b57600080fd5b5061017461066c565b604051610181919061103d565b60405180910390f35b6101a4600480360381019061019f91906110bd565b610692565b005b3480156101b257600080fd5b506101bb61078b565b6040516101c89190611071565b60405180910390f35b3480156101dd57600080fd5b506101f860048036038101906101f39190611128565b610791565b6040516102059190611170565b60405180910390f35b610216610840565b005b34801561022457600080fd5b5061023f600480360381019061023a91906110bd565b6109b2565b60405161024d92919061119a565b60405180910390f35b34801561026257600080fd5b5061027d60048036038101906102789190611128565b610a06565b60405161028a9190611170565b60405180910390f35b6102ad60048036038101906102a891906110bd565b610abc565b005b3480156102bb57600080fd5b506102c4610bc4565b005b3480156102d257600080fd5b506102ed60048036038101906102e891906110bd565b610ddc565b6040516102fa919061103d565b60405180910390f35b34801561030f57600080fd5b50610318610e1b565b005b600260009054906101000a900473ffffffffffffffffffffffffffffffffffffffff1681565b6000670de0b6b3a7640000476103569190611221565b905090565b6008543410156103a0576040517f08c379a0000000000000000000000000000000000000000000000000000000008152600401610397906112af565b60405180910390fd5b600115156103ad33610a06565b1515146103ef576040517f08c379a00000000000000000000000000000000000000000000000000000000081526004016103e69061131b565b60405180910390fd5b60016005546103fe919061133b565b60058190555060005b6004805490508110156104fc573373ffffffffffffffffffffffffffffffffffffffff166004828154811061043f5761043e611391565b5b906000526020600020906002020160000160009054906101000a900473ffffffffffffffffffffffffffffffffffffffff1673ffffffffffffffffffffffffffffffffffffffff1614156104e9576001600482815481106104a3576104a2611391565b5b9060005260206000209060020201600101546104bf919061133b565b600482815481106104d3576104d2611391565b5b9060005260206000209060020201600101819055505b80806104f4906113c0565b915050610407565b503447610509919061133b565b60008190555061051834610692565b565b60065434101561055f576040517f08c379a0000000000000000000000000000000000000000000000000000000008152600401610556906112af565b60405180910390fd5b6000151561056c33610a06565b1515146105ae576040517f08c379a00000000000000000000000000000000000000000000000000000000081526004016105a590611455565b60405180910390fd5b600460405180604001604052803373ffffffffffffffffffffffffffffffffffffffff1681526020016000815250908060018154018082558091505060019003906000526020600020906002020160009091909190915060008201518160000160006101000a81548173ffffffffffffffffffffffffffffffffffffffff021916908373ffffffffffffffffffffffffffffffffffffffff1602179055506020820151816001015550503447610664919061133b565b600081905550565b600160009054906101000a900473ffffffffffffffffffffffffffffffffffffffff1681565b60006002826106a19190611221565b9050600260009054906101000a900473ffffffffffffffffffffffffffffffffffffffff1673ffffffffffffffffffffffffffffffffffffffff166108fc829081150290604051600060405180830381858888f1935050505015801561070b573d6000803e3d6000fd5b50600160009054906101000a900473ffffffffffffffffffffffffffffffffffffffff1673ffffffffffffffffffffffffffffffffffffffff166108fc829081150290604051600060405180830381858888f19350505050158015610774573d6000803e3d6000fd5b5081476107819190611475565b6000819055505050565b60005481565b600080600090505b600380549050811015610835578273ffffffffffffffffffffffffffffffffffffffff16600382815481106107d1576107d0611391565b5b9060005260206000200160009054906101000a900473ffffffffffffffffffffffffffffffffffffffff1673ffffffffffffffffffffffffffffffffffffffff16141561082257600191505061083b565b808061082d906113c0565b915050610799565b50600090505b919050565b600754341015610885576040517f08c379a000000000000000000000000000000000000000000000000000000000815260040161087c906112af565b60405180910390fd5b6000151561089233610791565b1515146108d4576040517f08c379a00000000000000000000000000000000000000000000000000000000081526004016108cb906114f5565b60405180910390fd5b6003339080600181540180825580915050600190039060005260206000200160009091909190916101000a81548173ffffffffffffffffffffffffffffffffffffffff021916908373ffffffffffffffffffffffffffffffffffffffff1602179055506000471161097a576040517f08c379a000000000000000000000000000000000000000000000000000000000815260040161097190611561565b60405180910390fd5b3447610986919061133b565b600081905550600060023461099b9190611221565b90506109a681610abc565b6109af34610692565b50565b600481815481106109c257600080fd5b90600052602060002090600202016000915090508060000160009054906101000a900473ffffffffffffffffffffffffffffffffffffffff16908060010154905082565b600080600090505b600480549050811015610ab1578273ffffffffffffffffffffffffffffffffffffffff1660048281548110610a4657610a45611391565b5b906000526020600020906002020160000160009054906101000a900473ffffffffffffffffffffffffffffffffffffffff1673ffffffffffffffffffffffffffffffffffffffff161415610a9e576001915050610ab7565b8080610aa9906113c0565b915050610a0e565b50600090505b919050565b600060055482610acc9190611221565b905060005b600480549050811015610bad5760048181548110610af257610af1611391565b5b906000526020600020906002020160000160009054906101000a900473ffffffffffffffffffffffffffffffffffffffff1673ffffffffffffffffffffffffffffffffffffffff166108fc60048381548110610b5157610b50611391565b5b90600052602060002090600202016001015484610b6e9190611581565b9081150290604051600060405180830381858888f19350505050158015610b99573d6000803e3d6000fd5b508080610ba5906113c0565b915050610ad1565b508147610bba9190611475565b6000819055505050565b60011515610bd133610a06565b151514610c13576040517f08c379a0000000000000000000000000000000000000000000000000000000008152600401610c0a90611627565b60405180910390fd5b60005b600480549050811015610dd8573373ffffffffffffffffffffffffffffffffffffffff1660048281548110610c4e57610c4d611391565b5b906000526020600020906002020160000160009054906101000a900473ffffffffffffffffffffffffffffffffffffffff1673ffffffffffffffffffffffffffffffffffffffff161415610dc55760046001600480549050610cb09190611475565b81548110610cc157610cc0611391565b5b906000526020600020906002020160048281548110610ce357610ce2611391565b5b90600052602060002090600202016000820160009054906101000a900473ffffffffffffffffffffffffffffffffffffffff168160000160006101000a81548173ffffffffffffffffffffffffffffffffffffffff021916908373ffffffffffffffffffffffffffffffffffffffff160217905550600182015481600101559050506004805480610d7757610d76611647565b5b6001900381819060005260206000209060020201600080820160006101000a81549073ffffffffffffffffffffffffffffffffffffffff021916905560018201600090555050905550610dda565b8080610dd0906113c0565b915050610c16565b505b565b60038181548110610dec57600080fd5b906000526020600020016000915054906101000a900473ffffffffffffffffffffffffffffffffffffffff1681565b60011515610e2833610791565b151514610e6a576040517f08c379a0000000000000000000000000000000000000000000000000000000008152600401610e61906116c2565b60405180910390fd5b60005b600380549050811015610ff8573373ffffffffffffffffffffffffffffffffffffffff1660038281548110610ea557610ea4611391565b5b9060005260206000200160009054906101000a900473ffffffffffffffffffffffffffffffffffffffff1673ffffffffffffffffffffffffffffffffffffffff161415610fe55760036001600380549050610f009190611475565b81548110610f1157610f10611391565b5b9060005260206000200160009054906101000a900473ffffffffffffffffffffffffffffffffffffffff1660038281548110610f5057610f4f611391565b5b9060005260206000200160006101000a81548173ffffffffffffffffffffffffffffffffffffffff021916908373ffffffffffffffffffffffffffffffffffffffff1602179055506003805480610faa57610fa9611647565b5b6001900381819060005260206000200160006101000a81549073ffffffffffffffffffffffffffffffffffffffff0219169055905550610ffa565b8080610ff0906113c0565b915050610e6d565b505b565b600073ffffffffffffffffffffffffffffffffffffffff82169050919050565b600061102782610ffc565b9050919050565b6110378161101c565b82525050565b6000602082019050611052600083018461102e565b92915050565b6000819050919050565b61106b81611058565b82525050565b60006020820190506110866000830184611062565b92915050565b600080fd5b61109a81611058565b81146110a557600080fd5b50565b6000813590506110b781611091565b92915050565b6000602082840312156110d3576110d261108c565b5b60006110e1848285016110a8565b91505092915050565b60006110f582610ffc565b9050919050565b611105816110ea565b811461111057600080fd5b50565b600081359050611122816110fc565b92915050565b60006020828403121561113e5761113d61108c565b5b600061114c84828501611113565b91505092915050565b60008115159050919050565b61116a81611155565b82525050565b60006020820190506111856000830184611161565b92915050565b611194816110ea565b82525050565b60006040820190506111af600083018561118b565b6111bc6020830184611062565b9392505050565b7f4e487b7100000000000000000000000000000000000000000000000000000000600052601260045260246000fd5b7f4e487b7100000000000000000000000000000000000000000000000000000000600052601160045260246000fd5b600061122c82611058565b915061123783611058565b925082611247576112466111c3565b5b828204905092915050565b600082825260208201905092915050565b7f4e6f7420656e6f75676820426c756520436f696e210000000000000000000000600082015250565b6000611299601583611252565b91506112a482611263565b602082019050919050565b600060208201905081810360008301526112c88161128c565b9050919050565b7f4e6f74206120726567697374657265642076656e646f72000000000000000000600082015250565b6000611305601783611252565b9150611310826112cf565b602082019050919050565b60006020820190508181036000830152611334816112f8565b9050919050565b600061134682611058565b915061135183611058565b9250827fffffffffffffffffffffffffffffffffffffffffffffffffffffffffffffffff03821115611386576113856111f2565b5b828201905092915050565b7f4e487b7100000000000000000000000000000000000000000000000000000000600052603260045260246000fd5b60006113cb82611058565b91507fffffffffffffffffffffffffffffffffffffffffffffffffffffffffffffffff8214156113fe576113fd6111f2565b5b600182019050919050565b7f596f752061726520616c726561647920612076656e646f720000000000000000600082015250565b600061143f601883611252565b915061144a82611409565b602082019050919050565b6000602082019050818103600083015261146e81611432565b9050919050565b600061148082611058565b915061148b83611058565b92508282101561149e5761149d6111f2565b5b828203905092915050565b7f596f752061726520616c7265616479206120706c617965720000000000000000600082015250565b60006114df601883611252565b91506114ea826114a9565b602082019050919050565b6000602082019050818103600083015261150e816114d2565b9050919050565b7f62616c616e636520697320300000000000000000000000000000000000000000600082015250565b600061154b600c83611252565b915061155682611515565b602082019050919050565b6000602082019050818103600083015261157a8161153e565b9050919050565b600061158c82611058565b915061159783611058565b9250817fffffffffffffffffffffffffffffffffffffffffffffffffffffffffffffffff04831182151516156115d0576115cf6111f2565b5b828202905092915050565b7f596f7520617265206e6f7420612076656e646f72000000000000000000000000600082015250565b6000611611601483611252565b915061161c826115db565b602082019050919050565b6000602082019050818103600083015261164081611604565b9050919050565b7f4e487b7100000000000000000000000000000000000000000000000000000000600052603160045260246000fd5b7f596f7520617265206e6f74206120706c61796572000000000000000000000000600082015250565b60006116ac601483611252565b91506116b782611676565b602082019050919050565b600060208201905081810360008301526116db8161169f565b905091905056fea26469706673582212202453748388a45defaf478fdc6251cb5d91b1b5f6e8c2c5479be8e4829177527664736f6c634300080c0033",
  "immutableReferences": {},
  "source": "//SPDX-License-Identifier: UNLICENSED\npragma solidity ^0.8.10;\n\ncontract LuckyBlue {\n    receive() external payable {}\n\n    fallback() external payable {}\n\n    uint256 public ContractValue;\n    address public cedric;\n    address public jack;\n    address[] public players;\n    Vendor[] public vendors;\n    uint256 numGames = 0;\n    uint256 vendorFee = 2;\n    uint256 playerFee = 2;\n    uint256 addGameFee = 1;\n\n    struct Vendor {\n        address payable vendorAddress;\n        uint256 numVendorGames;\n    }\n\n    constructor() payable {\n        cedric = 0x2D0f7c3aB45f19B74930361D3eD552AC051F2678;\n        jack = 0x2380D2460FEfC293A545BAc895c3407D46dC53fB;\n        ContractValue = msg.value;\n    }\n\n    function getBalance() public view returns (uint256) {\n        return (address(this).balance / (1 ether));\n    }\n\n    // Registers a player\n    function RegisterPlayer() public payable {\n        require(msg.value >= playerFee, \"Not enough Blue Coin!\"); //pay fee\n        require(\n            CheckPlayer(payable(msg.sender)) == false,\n            \"You are already a player\"\n        );\n        players.push(payable(msg.sender)); //added to list\n        require(address(this).balance > 0, \"balance is 0\");\n        //require(numGames > 0, \"No Games\");\n        ContractValue = address(this).balance + msg.value;\n        uint256 vendorCut = msg.value / 2;\n        //uint256 ownerCut = msg.value  / 2;\n        PayVendors(uint256(vendorCut)); //sends cut to vendors\n        PayOwners(uint256(msg.value)); //sends cut to owners\n    }\n\n    // Deregisters a player\n    function DeregisterPlayer() public {\n        require(\n            CheckPlayer(payable(msg.sender)) == true,\n            \"You are not a player\"\n        );\n        for (uint256 i = 0; i < players.length; i++) {\n            if (players[i] == msg.sender) {\n                players[i] = players[players.length - 1];\n                players.pop();\n                return;\n            }\n        }\n    }\n\n    // Registers a Vendor\n    function RegisterVendor() public payable {\n        require(msg.value >= vendorFee, \"Not enough Blue Coin!\"); //takes inital game and payment\n        require(\n            CheckVendor(payable(msg.sender)) == false,\n            \"You are already a vendor\"\n        );\n        vendors.push(\n            Vendor({vendorAddress: payable(msg.sender), numVendorGames: 0})\n        ); //added to list\n        ContractValue = address(this).balance + msg.value;\n        //require(address(this).balance > 0, \"balance is 0\");\n        //PayOwners(msg.value); //sends cut to vendors\n    }\n\n    // Deregisters a Vendor\n    function DeregisterVendor() public {\n        require(\n            CheckVendor(payable(msg.sender)) == true,\n            \"You are not a vendor\"\n        );\n        for (uint256 i = 0; i < vendors.length; i++) {\n            if (vendors[i].vendorAddress == msg.sender) {\n                vendors[i] = vendors[vendors.length - 1];\n                vendors.pop();\n                return;\n            }\n        }\n    }\n\n    // Checks if a player is registered\n    function CheckPlayer(address payable player) public view returns (bool) {\n        for (uint256 i = 0; i < players.length; i++) {\n            if (players[i] == player) return true;\n        }\n        return false;\n    }\n\n    // Checks if a vendor is registered\n    function CheckVendor(address payable vendor) public view returns (bool) {\n        for (uint256 i = 0; i < vendors.length; i++) {\n            if (vendors[i].vendorAddress == vendor) return true;\n        }\n        return false;\n    }\n\n    //pays vendors thier cut\n    function PayVendors(uint256 vendorCut) public payable {\n        uint256 payPerGame = vendorCut / numGames;\n        for (uint256 i = 0; i < vendors.length; i++) {\n            vendors[i].vendorAddress.transfer(\n                (payPerGame * vendors[i].numVendorGames)\n            );\n        }\n        ContractValue = address(this).balance - vendorCut;\n    }\n\n    //pays owners thier cut\n    function PayOwners(uint256 ownerCut) public payable {\n        uint256 pay = ownerCut / 2;\n        payable(jack).transfer(pay);\n        payable(cedric).transfer(pay);\n        ContractValue = address(this).balance - ownerCut;\n    }\n\n    //adds a game to from a vendor\n    function AddGame() public payable {\n        require(msg.value >= addGameFee, \"Not enough Blue Coin!\");\n        require(\n            CheckVendor(payable(msg.sender)) == true,\n            \"Not a registered vendor\"\n        );\n        numGames = numGames + 1;\n        for (uint256 i = 0; i < vendors.length; i++) {\n            if (vendors[i].vendorAddress == msg.sender) {\n                vendors[i].numVendorGames = vendors[i].numVendorGames + 1;\n            }\n        }\n        ContractValue = address(this).balance + msg.value;\n        PayOwners(msg.value);\n    }\n}\n",
  "sourcePath": "/Users/cedricbone/Downloads/LuckyBlueDapp/contract/contracts/LuckyBlue.sol",
  "compiler": {
    "name": "solc",
    "version": "0.8.12+commit.f00d7308.Emscripten.clang"
  },
  "schemaVersion": "3.4.6",
  "updatedAt": "2022-04-14T15:55:45.608Z",
  "networkType": "ethereum",
  "devdoc": {
    "kind": "dev",
    "methods": {},
    "version": 1
  },
  "userdoc": {
    "kind": "user",
    "methods": {},
    "version": 1
  }
}