{
  "contractName": "LuckyBule",
  "abi": [
    {
      "inputs": [],
      "stateMutability": "payable",
      "type": "constructor"
    },
    {
      "stateMutability": "payable",
      "type": "fallback"
    },
    {
      "inputs": [],
      "name": "ContractValue",
      "outputs": [
        {
          "internalType": "uint256",
          "name": "",
          "type": "uint256"
        }
      ],
      "stateMutability": "view",
      "type": "function"
    },
    {
      "inputs": [],
      "name": "cedric",
      "outputs": [
        {
          "internalType": "address",
          "name": "",
          "type": "address"
        }
      ],
      "stateMutability": "view",
      "type": "function"
    },
    {
      "inputs": [],
      "name": "jack",
      "outputs": [
        {
          "internalType": "address",
          "name": "",
          "type": "address"
        }
      ],
      "stateMutability": "view",
      "type": "function"
    },
    {
      "inputs": [
        {
          "internalType": "uint256",
          "name": "",
          "type": "uint256"
        }
      ],
      "name": "players",
      "outputs": [
        {
          "internalType": "address",
          "name": "",
          "type": "address"
        }
      ],
      "stateMutability": "view",
      "type": "function"
    },
    {
      "inputs": [
        {
          "internalType": "uint256",
          "name": "",
          "type": "uint256"
        }
      ],
      "name": "vendors",
      "outputs": [
        {
          "internalType": "address payable",
          "name": "vendorAddress",
          "type": "address"
        },
        {
          "internalType": "uint256",
          "name": "numVendorGames",
          "type": "uint256"
        }
      ],
      "stateMutability": "view",
      "type": "function"
    },
    {
      "stateMutability": "payable",
      "type": "receive"
    },
    {
      "inputs": [],
      "name": "getBalance",
      "outputs": [
        {
          "internalType": "uint256",
          "name": "",
          "type": "uint256"
        }
      ],
      "stateMutability": "view",
      "type": "function"
    },
    {
      "inputs": [],
      "name": "extractValue",
      "outputs": [],
      "stateMutability": "payable",
      "type": "function"
    },
    {
      "inputs": [],
      "name": "RegisterPlayer",
      "outputs": [],
      "stateMutability": "payable",
      "type": "function"
    },
    {
      "inputs": [],
      "name": "DeregisterPlayer",
      "outputs": [],
      "stateMutability": "nonpayable",
      "type": "function"
    },
    {
      "inputs": [],
      "name": "RegisterVendor",
      "outputs": [],
      "stateMutability": "payable",
      "type": "function"
    },
    {
      "inputs": [],
      "name": "DeregisterVendor",
      "outputs": [],
      "stateMutability": "nonpayable",
      "type": "function"
    },
    {
      "inputs": [
        {
          "internalType": "address payable",
          "name": "player",
          "type": "address"
        }
      ],
      "name": "CheckPlayer",
      "outputs": [
        {
          "internalType": "bool",
          "name": "",
          "type": "bool"
        }
      ],
      "stateMutability": "view",
      "type": "function"
    },
    {
      "inputs": [
        {
          "internalType": "address payable",
          "name": "vendor",
          "type": "address"
        }
      ],
      "name": "CheckVendor",
      "outputs": [
        {
          "internalType": "bool",
          "name": "",
          "type": "bool"
        }
      ],
      "stateMutability": "view",
      "type": "function"
    },
    {
      "inputs": [
        {
          "internalType": "uint256",
          "name": "vendorCut",
          "type": "uint256"
        }
      ],
      "name": "PayVendors",
      "outputs": [],
      "stateMutability": "payable",
      "type": "function"
    },
    {
      "inputs": [],
      "name": "AddGame",
      "outputs": [],
      "stateMutability": "payable",
      "type": "function"
    }
  ],
  "bytecode": "0x608060405260006005556001600655600a6007556005600855735b38da6a701c568545dcfcb03fcb875f56beddc4600160006101000a81548173ffffffffffffffffffffffffffffffffffffffff021916908373ffffffffffffffffffffffffffffffffffffffff16021790555073ab8483f64d9c6d1ecf9b849ae677dd3315835cb2600260006101000a81548173ffffffffffffffffffffffffffffffffffffffff021916908373ffffffffffffffffffffffffffffffffffffffff1602179055503460008190555061187d806100d86000396000f3fe6080604052600436106100ec5760003560e01c80638e10c8c51161008a578063cabc05d011610059578063cabc05d014610281578063f6246c0f1461029d578063f71d96cb146102b4578063f840a8a6146102f1576100f3565b80638e10c8c5146101bf57806393a4ce61146101fc578063a08d986d14610206578063a821c6d414610244576100f3565b80633c5b0053116100c65780633c5b005314610155578063595cd96f1461015f57806378c8769b14610169578063873babff14610194576100f3565b806305417143146100f557806312065fe014610120578063131c45211461014b576100f3565b366100f357005b005b34801561010157600080fd5b5061010a610308565b60405161011791906110a4565b60405180910390f35b34801561012c57600080fd5b5061013561032e565b60405161014291906110d8565b60405180910390f35b610153610349565b005b61015d610504565b005b6101676106ba565b005b34801561017557600080fd5b5061017e61080c565b60405161018b91906110a4565b60405180910390f35b3480156101a057600080fd5b506101a9610832565b6040516101b691906110d8565b60405180910390f35b3480156101cb57600080fd5b506101e660048036038101906101e19190611136565b610838565b6040516101f3919061117e565b60405180910390f35b6102046108e7565b005b34801561021257600080fd5b5061022d600480360381019061022891906111c5565b610a19565b60405161023b929190611201565b60405180910390f35b34801561025057600080fd5b5061026b60048036038101906102669190611136565b610a6d565b604051610278919061117e565b60405180910390f35b61029b600480360381019061029691906111c5565b610b23565b005b3480156102a957600080fd5b506102b2610c2b565b005b3480156102c057600080fd5b506102db60048036038101906102d691906111c5565b610e43565b6040516102e891906110a4565b60405180910390f35b3480156102fd57600080fd5b50610306610e82565b005b600260009054906101000a900473ffffffffffffffffffffffffffffffffffffffff1681565b6000670de0b6b3a7640000476103449190611288565b905090565b60005434111561038e576040517f08c379a00000000000000000000000000000000000000000000000000000000081526004016103859061133c565b60405180910390fd5b600260009054906101000a900473ffffffffffffffffffffffffffffffffffffffff1673ffffffffffffffffffffffffffffffffffffffff163373ffffffffffffffffffffffffffffffffffffffff1614806104375750600160009054906101000a900473ffffffffffffffffffffffffffffffffffffffff1673ffffffffffffffffffffffffffffffffffffffff163373ffffffffffffffffffffffffffffffffffffffff16145b610476576040517f08c379a000000000000000000000000000000000000000000000000000000000815260040161046d906113a8565b60405180910390fd5b60003373ffffffffffffffffffffffffffffffffffffffff166108fc349081150290604051600060405180830381858888f193505050509050806104ef576040517f08c379a00000000000000000000000000000000000000000000000000000000081526004016104e690611414565b60405180910390fd5b34476104fb9190611434565b60008190555050565b600854341015610549576040517f08c379a0000000000000000000000000000000000000000000000000000000008152600401610540906114b4565b60405180910390fd5b6001151561055633610a6d565b151514610598576040517f08c379a000000000000000000000000000000000000000000000000000000000815260040161058f90611520565b60405180910390fd5b60016005546105a79190611540565b60058190555060005b6004805490508110156106a5573373ffffffffffffffffffffffffffffffffffffffff16600482815481106105e8576105e7611596565b5b906000526020600020906002020160000160009054906101000a900473ffffffffffffffffffffffffffffffffffffffff1673ffffffffffffffffffffffffffffffffffffffff1614156106925760016004828154811061064c5761064b611596565b5b9060005260206000209060020201600101546106689190611540565b6004828154811061067c5761067b611596565b5b9060005260206000209060020201600101819055505b808061069d906115c5565b9150506105b0565b5034476106b29190611540565b600081905550565b6006543410156106ff576040517f08c379a00000000000000000000000000000000000000000000000000000000081526004016106f6906114b4565b60405180910390fd5b6000151561070c33610a6d565b15151461074e576040517f08c379a00000000000000000000000000000000000000000000000000000000081526004016107459061165a565b60405180910390fd5b600460405180604001604052803373ffffffffffffffffffffffffffffffffffffffff1681526020016000815250908060018154018082558091505060019003906000526020600020906002020160009091909190915060008201518160000160006101000a81548173ffffffffffffffffffffffffffffffffffffffff021916908373ffffffffffffffffffffffffffffffffffffffff16021790555060208201518160010155505034476108049190611540565b600081905550565b600160009054906101000a900473ffffffffffffffffffffffffffffffffffffffff1681565b60005481565b600080600090505b6003805490508110156108dc578273ffffffffffffffffffffffffffffffffffffffff166003828154811061087857610877611596565b5b9060005260206000200160009054906101000a900473ffffffffffffffffffffffffffffffffffffffff1673ffffffffffffffffffffffffffffffffffffffff1614156108c95760019150506108e2565b80806108d4906115c5565b915050610840565b50600090505b919050565b60075434101561092c576040517f08c379a0000000000000000000000000000000000000000000000000000000008152600401610923906114b4565b60405180910390fd5b6000151561093933610838565b15151461097b576040517f08c379a0000000000000000000000000000000000000000000000000000000008152600401610972906116c6565b60405180910390fd5b6003339080600181540180825580915050600190039060005260206000200160009091909190916101000a81548173ffffffffffffffffffffffffffffffffffffffff021916908373ffffffffffffffffffffffffffffffffffffffff16021790555060006002346109ed9190611288565b90506002346109fc9190611288565b47610a079190611540565b600081905550610a1681610b23565b50565b60048181548110610a2957600080fd5b90600052602060002090600202016000915090508060000160009054906101000a900473ffffffffffffffffffffffffffffffffffffffff16908060010154905082565b600080600090505b600480549050811015610b18578273ffffffffffffffffffffffffffffffffffffffff1660048281548110610aad57610aac611596565b5b906000526020600020906002020160000160009054906101000a900473ffffffffffffffffffffffffffffffffffffffff1673ffffffffffffffffffffffffffffffffffffffff161415610b05576001915050610b1e565b8080610b10906115c5565b915050610a75565b50600090505b919050565b600060055482610b339190611288565b905060005b600480549050811015610c145760048181548110610b5957610b58611596565b5b906000526020600020906002020160000160009054906101000a900473ffffffffffffffffffffffffffffffffffffffff1673ffffffffffffffffffffffffffffffffffffffff166108fc60048381548110610bb857610bb7611596565b5b90600052602060002090600202016001015484610bd591906116e6565b9081150290604051600060405180830381858888f19350505050158015610c00573d6000803e3d6000fd5b508080610c0c906115c5565b915050610b38565b508147610c219190611434565b6000819055505050565b60011515610c3833610a6d565b151514610c7a576040517f08c379a0000000000000000000000000000000000000000000000000000000008152600401610c719061178c565b60405180910390fd5b60005b600480549050811015610e3f573373ffffffffffffffffffffffffffffffffffffffff1660048281548110610cb557610cb4611596565b5b906000526020600020906002020160000160009054906101000a900473ffffffffffffffffffffffffffffffffffffffff1673ffffffffffffffffffffffffffffffffffffffff161415610e2c5760046001600480549050610d179190611434565b81548110610d2857610d27611596565b5b906000526020600020906002020160048281548110610d4a57610d49611596565b5b90600052602060002090600202016000820160009054906101000a900473ffffffffffffffffffffffffffffffffffffffff168160000160006101000a81548173ffffffffffffffffffffffffffffffffffffffff021916908373ffffffffffffffffffffffffffffffffffffffff160217905550600182015481600101559050506004805480610dde57610ddd6117ac565b5b6001900381819060005260206000209060020201600080820160006101000a81549073ffffffffffffffffffffffffffffffffffffffff021916905560018201600090555050905550610e41565b8080610e37906115c5565b915050610c7d565b505b565b60038181548110610e5357600080fd5b906000526020600020016000915054906101000a900473ffffffffffffffffffffffffffffffffffffffff1681565b60011515610e8f33610838565b151514610ed1576040517f08c379a0000000000000000000000000000000000000000000000000000000008152600401610ec890611827565b60405180910390fd5b60005b60038054905081101561105f573373ffffffffffffffffffffffffffffffffffffffff1660038281548110610f0c57610f0b611596565b5b9060005260206000200160009054906101000a900473ffffffffffffffffffffffffffffffffffffffff1673ffffffffffffffffffffffffffffffffffffffff16141561104c5760036001600380549050610f679190611434565b81548110610f7857610f77611596565b5b9060005260206000200160009054906101000a900473ffffffffffffffffffffffffffffffffffffffff1660038281548110610fb757610fb6611596565b5b9060005260206000200160006101000a81548173ffffffffffffffffffffffffffffffffffffffff021916908373ffffffffffffffffffffffffffffffffffffffff1602179055506003805480611011576110106117ac565b5b6001900381819060005260206000200160006101000a81549073ffffffffffffffffffffffffffffffffffffffff0219169055905550611061565b8080611057906115c5565b915050610ed4565b505b565b600073ffffffffffffffffffffffffffffffffffffffff82169050919050565b600061108e82611063565b9050919050565b61109e81611083565b82525050565b60006020820190506110b96000830184611095565b92915050565b6000819050919050565b6110d2816110bf565b82525050565b60006020820190506110ed60008301846110c9565b92915050565b600080fd5b600061110382611063565b9050919050565b611113816110f8565b811461111e57600080fd5b50565b6000813590506111308161110a565b92915050565b60006020828403121561114c5761114b6110f3565b5b600061115a84828501611121565b91505092915050565b60008115159050919050565b61117881611163565b82525050565b6000602082019050611193600083018461116f565b92915050565b6111a2816110bf565b81146111ad57600080fd5b50565b6000813590506111bf81611199565b92915050565b6000602082840312156111db576111da6110f3565b5b60006111e9848285016111b0565b91505092915050565b6111fb816110f8565b82525050565b600060408201905061121660008301856111f2565b61122360208301846110c9565b9392505050565b7f4e487b7100000000000000000000000000000000000000000000000000000000600052601260045260246000fd5b7f4e487b7100000000000000000000000000000000000000000000000000000000600052601160045260246000fd5b6000611293826110bf565b915061129e836110bf565b9250826112ae576112ad61122a565b5b828204905092915050565b600082825260208201905092915050565b7f5265717565737465642076616c7565206973206d6f7265207468616e20636f6e60008201527f747261637427732062616c616e63650000000000000000000000000000000000602082015250565b6000611326602f836112b9565b9150611331826112ca565b604082019050919050565b6000602082019050818103600083015261135581611319565b9050919050565b7f596f7520617265206e6f7420616e206f776e6572000000000000000000000000600082015250565b60006113926014836112b9565b915061139d8261135c565b602082019050919050565b600060208201905081810360008301526113c181611385565b9050919050565b7f4661696c656420746f2073656e64204574686572000000000000000000000000600082015250565b60006113fe6014836112b9565b9150611409826113c8565b602082019050919050565b6000602082019050818103600083015261142d816113f1565b9050919050565b600061143f826110bf565b915061144a836110bf565b92508282101561145d5761145c611259565b5b828203905092915050565b7f4e6f7420656e6f75676820426c756520436f696e210000000000000000000000600082015250565b600061149e6015836112b9565b91506114a982611468565b602082019050919050565b600060208201905081810360008301526114cd81611491565b9050919050565b7f4e6f74206120726567697374657265642076656e646f72000000000000000000600082015250565b600061150a6017836112b9565b9150611515826114d4565b602082019050919050565b60006020820190508181036000830152611539816114fd565b9050919050565b600061154b826110bf565b9150611556836110bf565b9250827fffffffffffffffffffffffffffffffffffffffffffffffffffffffffffffffff0382111561158b5761158a611259565b5b828201905092915050565b7f4e487b7100000000000000000000000000000000000000000000000000000000600052603260045260246000fd5b60006115d0826110bf565b91507fffffffffffffffffffffffffffffffffffffffffffffffffffffffffffffffff82141561160357611602611259565b5b600182019050919050565b7f596f752061726520616c726561647920612076656e646f720000000000000000600082015250565b60006116446018836112b9565b915061164f8261160e565b602082019050919050565b6000602082019050818103600083015261167381611637565b9050919050565b7f596f752061726520616c7265616479206120706c617965720000000000000000600082015250565b60006116b06018836112b9565b91506116bb8261167a565b602082019050919050565b600060208201905081810360008301526116df816116a3565b9050919050565b60006116f1826110bf565b91506116fc836110bf565b9250817fffffffffffffffffffffffffffffffffffffffffffffffffffffffffffffffff048311821515161561173557611734611259565b5b828202905092915050565b7f596f7520617265206e6f7420612076656e646f72000000000000000000000000600082015250565b60006117766014836112b9565b915061178182611740565b602082019050919050565b600060208201905081810360008301526117a581611769565b9050919050565b7f4e487b7100000000000000000000000000000000000000000000000000000000600052603160045260246000fd5b7f596f7520617265206e6f74206120706c61796572000000000000000000000000600082015250565b60006118116014836112b9565b915061181c826117db565b602082019050919050565b6000602082019050818103600083015261184081611804565b905091905056fea264697066735822122021a35678ebbd27c28b5dd8cb7317bf33ee29ae38e22e99243a7571a29481dd6164736f6c634300080c0033",
  "immutableReferences": {},
  "source": "//SPDX-License-Identifier: UNLICENSED\npragma solidity ^0.8.10;\n\ncontract LuckyBule {\n    receive() external payable {}\n\n    fallback() external payable {}\n\n    uint256 public ContractValue;\n    address public cedric;\n    address public jack;\n    address[] public players;\n    Vendor[] public vendors;\n    uint256 numGames = 0;\n    uint256 vendorFee = 1;\n    uint256 playerFee = 10;\n    uint256 addGameFee = 5;\n\n    struct Vendor {\n        address payable vendorAddress;\n        uint256 numVendorGames;\n    }\n\n    constructor() payable {\n        cedric = 0x5B38Da6a701c568545dCfcB03FcB875f56beddC4;\n        jack = 0xAb8483F64d9C6d1EcF9b849Ae677dD3315835cb2;\n        ContractValue = msg.value;\n    }\n\n    function getBalance() public view returns (uint256) {\n        return (address(this).balance / (1 ether));\n    }\n\n    function extractValue() public payable {\n        require(\n            msg.value <= ContractValue,\n            \"Requested value is more than contract's balance\"\n        );\n        require(\n            payable(msg.sender) == jack || payable(msg.sender) == cedric,\n            \"You are not an owner\"\n        );\n        //payable(cedric).transfer(msg.value);\n        bool sent = payable(msg.sender).send(msg.value);\n        require(sent, \"Failed to send Ether\");\n        ContractValue = address(this).balance - (msg.value);\n    }\n\n    // Registers a player\n    function RegisterPlayer() public payable {\n        require(msg.value >= playerFee, \"Not enough Blue Coin!\"); //pay fee\n        require(\n            CheckPlayer(payable(msg.sender)) == false,\n            \"You are already a player\"\n        );\n        players.push(payable(msg.sender)); //added to list\n        //require(numGames > 0, \"No Games\");\n        uint256 vendorCut = msg.value / 2;\n        ContractValue = address(this).balance + (msg.value / 2);\n        PayVendors(uint256(vendorCut)); //sends cut to vendors\n    }\n\n    // Deregisters a player\n    function DeregisterPlayer() public {\n        require(\n            CheckPlayer(payable(msg.sender)) == true,\n            \"You are not a player\"\n        );\n        for (uint256 i = 0; i < players.length; i++) {\n            if (players[i] == msg.sender) {\n                players[i] = players[players.length - 1];\n                players.pop();\n                return;\n            }\n        }\n    }\n\n    // Registers a Vendor\n    function RegisterVendor() public payable {\n        require(msg.value >= vendorFee, \"Not enough Blue Coin!\"); //takes inital game and payment\n        require(\n            CheckVendor(payable(msg.sender)) == false,\n            \"You are already a vendor\"\n        );\n        vendors.push(\n            Vendor({vendorAddress: payable(msg.sender), numVendorGames: 0})\n        ); //added to list\n        ContractValue = address(this).balance + msg.value;\n    }\n\n    // Deregisters a Vendor\n    function DeregisterVendor() public {\n        require(\n            CheckVendor(payable(msg.sender)) == true,\n            \"You are not a vendor\"\n        );\n        for (uint256 i = 0; i < vendors.length; i++) {\n            if (vendors[i].vendorAddress == msg.sender) {\n                vendors[i] = vendors[vendors.length - 1];\n                vendors.pop();\n                return;\n            }\n        }\n    }\n\n    // Checks if a player is registered\n    function CheckPlayer(address payable player) public view returns (bool) {\n        for (uint256 i = 0; i < players.length; i++) {\n            if (players[i] == player) return true;\n        }\n        return false;\n    }\n\n    // Checks if a vendor is registered\n    function CheckVendor(address payable vendor) public view returns (bool) {\n        for (uint256 i = 0; i < vendors.length; i++) {\n            if (vendors[i].vendorAddress == vendor) return true;\n        }\n        return false;\n    }\n\n    //pays vendors thier cut\n    function PayVendors(uint256 vendorCut) public payable {\n        uint256 payPerGame = vendorCut / numGames;\n        for (uint256 i = 0; i < vendors.length; i++) {\n            vendors[i].vendorAddress.transfer(\n                (payPerGame * vendors[i].numVendorGames)\n            );\n        }\n        ContractValue = address(this).balance - vendorCut;\n    }\n\n    //adds a game to from a vendor\n    function AddGame() public payable {\n        require(msg.value >= addGameFee, \"Not enough Blue Coin!\");\n        require(\n            CheckVendor(payable(msg.sender)) == true,\n            \"Not a registered vendor\"\n        );\n        numGames = numGames + 1;\n        for (uint256 i = 0; i < vendors.length; i++) {\n            if (vendors[i].vendorAddress == msg.sender) {\n                vendors[i].numVendorGames = vendors[i].numVendorGames + 1;\n            }\n        }\n        ContractValue = address(this).balance + msg.value;\n    }\n}\n",
  "sourcePath": "/Users/cedricbone/Downloads/LuckyBlueDapp/contract/contracts/LuckyBlue.sol",
  "compiler": {
    "name": "solc",
    "version": "0.8.12+commit.f00d7308.Emscripten.clang"
  },
  "schemaVersion": "3.4.6",
  "updatedAt": "2022-04-14T15:55:42.692Z",
  "devdoc": {
    "kind": "dev",
    "methods": {},
    "version": 1
  },
  "userdoc": {
    "kind": "user",
    "methods": {},
    "version": 1
  }
}